:020000040800F2
:10000000C004002001010008A5250008551E0008B5
:10001000A125000855070008BD25000800000000C4
:10002000000000000000000000000000B1250008F2
:100030005907000800000000A9250008B5250008A0
:100040001B0100081B0100081B0100081B01000820
:100050006D070008AD2500085D070008650700086A
:100060001B0100081B0100081B0100081B01000800
:100070001B0100081B0100081B0100081B010008F0
:100080001B0100081B0100081B0100081B010008E0
:100090001B0100081B0100081B0100081B010008D0
:1000A0001B0100081B0100081B0100081B010008C0
:1000B0001B0100081B0100081B0100081B010008B0
:1000C0001B0100081B0100081B0100081B010008A0
:1000D0001B0100081B0100081B0100081B01000890
:1000E0001B0100081B0100081B010008DFF80CD0F1
:1000F00000F0ECFA00480047E1270008C0040020A7
:100100000648804706480047FEE7FEE7FEE7FEE7B1
:10011000FEE7FEE7FEE7FEE7FEE7FEE7B92500089B
:10012000ED0000082DE9FE4F81EA030404F00044CD
:1001300021F0004100944FF0000B23F0004350EAFF
:1001400001045ED052EA03045BD0C3F30A54C1F346
:100150000A552C44A4F2F3340194A0FB0254C1F3D9
:10016000130141F48011C3F3130343F4801301FB23
:10017000024400FB034E840A970A44EA815447EA8A
:100180008357A4FB076802958D0A05FB07854FEA94
:10019000932C04FB0C542705029D4FEA065847EAAE
:1001A0001637B5EB08056EEB070C870E920E47EA83
:1001B000811742EA8312A7FB0201B6EB0B0164EB45
:1001C00000042B0D43EA0C335E1844EB1C50DA4656
:1001D0005146E7FB0201C5F313044FEA0B3343EA30
:1001E00014534FEA0432019C43EA0603A4F10C04C1
:1001F0000294009CCDE900B400F042F903B0BDE8E0
:10020000F08F00200146F9E72DE9F04D81EA030463
:1002100004F0004B21F0004514464FF0000A23F093
:10022000004150EA050220D054EA01021DD0C5F376
:100230000A570246C5F31303C1F31300C1F30A566C
:1002400040F4801543F48013A7EB0608101BD64634
:1002500008F2FD3873EB050002D308F1010801E054
:1002600092185B41B8F1000F03DA00200146BDE8A7
:10027000F08D00204FF48011064684460EE0171BD7
:1002800073EB050705D3121B63EB050306434CEA2A
:10029000010C49084FEA300092185B4150EA01070F
:1002A000EDD152EA030012D082EA040083EA05018C
:1002B000084305D0101BAB4106D20122002306E003
:1002C00000224FF0004302E06FF0010253101AEBDE
:1002D00006004CEB085110EB0A0041EB0B01BDE8A6
:1002E000F04D00F0BEB80EB5C10F80EAE0700844D2
:1002F000CA07002140F233438DE80E000A460B4640
:1003000000F0BEF803B000BD00F0004230F0004045
:100310000AD0C10D01F56071C0F3160042EA015127
:10032000C20840071143704700200146704701F0A2
:10033000004330B421F0004150EA010206D00A0D1A
:10034000A2F56072C1F31301002A02DC30BC002068
:100350007047440F44EAC104C100E01830BC00EB10
:10036000C25000F047B830B50B46014600202022AD
:10037000012409E021FA02F59D4205D303FA02F5B2
:10038000491B04FA02F52844151EA2F10102F1DC12
:1003900030BD2DE9F05F0546002092469B46884619
:1003A0000646814640241BE02846414647462246F1
:1003B00000F0ADF953465A46C01A914110D3114688
:1003C0001846224600F094F92D1A67EB01084F46B3
:1003D00022460120002100F08BF917EB00094E4165
:1003E000201EA4F10104DFDC484631462A4643467C
:1003F000BDE8F09F0029A8BF7047401C490008BF16
:1004000020F00100704710B4B0FA80FC00FA0CF044
:1004100050EA010404BF10BC704749B1CCF120047C
:1004200021FA04F411FA0CF118BF01212143084309
:10043000A3EB0C01CB1D4FEA00614FEA102042BF35
:10044000002010BC704700EBC35010440029A4BF2B
:1004500010BC7047401C490008BF20F0010010BCD0
:10046000704710B5141E73F1000408DA401C41F106
:10047000000192185B411A4301D120F0010010BD28
:100480002DE9F04D92469B4611B1B1FA81F202E09E
:10049000B0FA80F22032904600F02AF904460F4666
:1004A00040EA0A0041EA0B0153465A46084313D07A
:1004B000114653EA010019D0C8F14002504600F03D
:1004C00026F905460E4650465946424600F010F9B8
:1004D000084305D0012004E020463946BDE8F08DF0
:1004E0000020054346EAE0762C4337430A9863052B
:1004F000E40AA0EB08000022FD0A44EA47540A304F
:1005000002D500200146E9E7010510196941DDE93E
:10051000084500196941BDE8F04DA2E72DE9FE4FFD
:10052000804681EA0300C00F0C46009021F0004194
:1005300023F00045B8EB0200A94105D24046214610
:1005400090461C460B46024623F00040104347D01D
:10055000270DC7F30A00C3F30A510290401A019015
:1005600040286BDAC3F3130040F4801B00989246D6
:1005700020B10023D2EB030A63EB0B0B0198594621
:10058000C0F14002504600F0B3F806460D46504612
:100590005946019A00F0CBF810EB080061410024A5
:1005A00087EA115284EAE7731A4340D0009A62B393
:1005B000019A012A4FEA075215DC001B61EB020188
:1005C0004FF0004202EA0752CDE90042001C41F51B
:1005D000801132462B46FFF753FF03B0BDE8F08F82
:1005E00040462146F9E7001B61EB0201001C41F582
:1005F000801300185B412018A2F5001747EB030198
:1006000040EAD570B6196D4111E06D084FEA360623
:1006100045EAC0754FEA0752001B61EB0201001C5E
:1006200041F5801149084FEA300000195141324626
:100630002B4603B0BDE8F04FFFF713BF009801222F
:1006400040000023D0EB020263EBE07300982146E8
:100650004FEAE074B8EB000061EB0401E9E783F0D6
:1006600000435BE781F0004158E7C1F30A52C1F350
:10067000130140F2FF3341F480119A4202DA002064
:100680000146704740F233439A42A2F2334202DC01
:10069000524200F03CB800F02BB8000030B5041E08
:1006A00071F1000404DB4FF00044404264EB0101AF
:1006B000141E73F1000405DB1C464FF00043524248
:1006C00063EB0403994208BF904230BD064C074DCE
:1006D00006E0E06840F0010394E807009847103412
:1006E000AC42F6D3FFF706FD283300084833000874
:1006F000202A04DB203A00FA02F1002070479140E2
:10070000C2F1200320FA03F3194390407047202AD6
:1007100004DB203A21FA02F00021704721FA02F3AB
:10072000D040C2F120029140084319467047202A68
:1007300006DBCB17203A41FA02F043EAE07306E009
:1007400041FA02F3D040C2F1200291400843194619
:1007500070470000FEE7000070470000012000F035
:100760003BB90000022000F037B9000000F02AB8C1
:1007700040F29801C2F200010022CA6142F2100167
:10078000C4F202010A6842F002020A604860086886
:1007900040F0400008607047B0B5044600F038FAF9
:1007A000054640F20400C2F200000078611C18BF48
:1007B000044400BF00F02CFA401BA042FAD3B0BDA5
:1007C0007047000070B542F21004C4F2020454F8FD
:1007D000040C40F29805C006C2F200055CBF54F854
:1007E000040C5FEA407029D54FF0FF31A868A9607A
:1007F00054F8041CC90601D4002104E0E96941F061
:100800000201E961102154F8042C520705D5EA6968
:1008100041F0040142F00102EA61E268D20707D028
:10082000EA6942F00402EA61E26822F00102E26051
:1008300044F8041C00F07AF80020287054F8040CE6
:10084000800663D5202044F8040C287800285DD069
:100850002878012812D16868013868606868C8B3D0
:10086000A868FFF7ADFFA86800F58060A860216860
:1008700021F002012160FFF77BFF47E02878022882
:1008800009D12068002620F0040020600020FFF736
:1008900097FF2E703AE0686801386860686818B39E
:1008A000A8680230A860A868D5E90412090C41EADA
:1008B0000241120CC5E90412216821F001012160F6
:1008C000D5E904120022EA61226842F001022260A6
:1008D00001801BE04FF0FF30A860002028704FF02F
:1008E000FF30FFF76DFF11E02878032801D1A868D9
:1008F00005E02978A868042914BF06380238FFF7F4
:100900005FFF4FF0FF30A860002028702878002893
:1009100018BF70BD206820F007002060206820F418
:10092000A05020600020287670BD000070470000B5
:1009300010B5022826D0012818BF10BD40F60004CB
:10094000C4F201042046802100F054F940F2100066
:10095000C2F20000C1680131C1606FF35E0101297C
:1009600004D120464021002200F04CF94FF61441FA
:10097000CFF6FF71012206206250BDE8104000F062
:100980006DBF00BF40F2100040F60004C2F200004C
:100990000021C4F20104C16020464021002200F081
:1009A00031F920468021002200F02CF901F008FEE8
:1009B0000020002101F0BAFE02A0BDE8104001F0C5
:1009C000E3BE00BF52455345542E2E2E2E2E2E2E02
:1009D0002E2E2E2E0000000040F21441C4F2010120
:1009E0000A68024214BF08607047FFF7A1BF000009
:1009F0002DE9F04F82B00E68002E00F0F88040F232
:100A00000C4C40F2004E41F20042C4F2010CC4F220
:100A1000010EC4F201020427002401234FF0000A52
:100A20004FF00009904208BF0327009741E00127DB
:100A300004F00C030F229A402BEA020207FA03F398
:100A40004FEA9A051A4346F825204E68F203DEF86D
:100A5000002054BF22EA080242EA0802CEF8002031
:100A6000DEF80420B30354BF22EA080242EA080277
:100A7000CEF80420F302DEF8082054BF22EA080270
:100A800042EA0802B302CEF80820DCF800204FF05A
:100A9000010354BF22EA080242EA0802CCF800200F
:100AA0000E680AF1010A36FA0AF204F1040400F0B1
:100AB0009E8003FA0AFB16EA0B08F1D04E684FF647
:100AC000FF72C1F21002964210DC122E50D8DFE8FD
:100AD00006F0330A41454F4F4F4F4F4F4F4F4F4F47
:100AE0004F4F4F484C00D1F80C9041E04FF6FF7249
:100AF000C1F2210296420FDC0022C1F2110296429D
:100B00001AD00022C1F21202964215D00022C1F280
:100B10002102964210D02BE00022C1F2220296421E
:100B20000AD00022C1F23102964205D00022C1F261
:100B3000320296421CD100BF8A6842B1012A14BF1A
:100B4000C0F814B0C0F810B04FF0080910E04FF032
:100B500004090DE0CA6802F1080909E04FF0000934
:100B600006E0CA6802F1040902E0CA6802F10C0951
:100B700022460646B8F5807F24BF203A04363768FF
:100B80000F25954027EA050509FA02F22A4332604B
:100B9000CA79D2067FF584AF41F21803C4F202038A
:100BA0001A68AEF57E7642F001021A601A6802F009
:100BB00001020192019A2AF0030256F802B040F6AF
:100BC0000002C4F2010290420FD040F60042C4F28B
:100BD000010290423FF42BAF41F20002C4F2010245
:100BE000009F904208BF022722E7002720E702B0BB
:100BF000BDE8F08FC26802EA0103914341EA034174
:100C000001617047002A08BF0904016170470000B4
:100C100040F2B800C2F2000000687047F0B581B041
:100C2000B0B3044690F83D0028B9002084F83C0099
:100C3000204600F065FD242084F83D00206801680E
:100C400021F001010160016841F400410160016887
:100C500021F40041016000F03BFF48F28041C0F206
:100C60001E0140F60012656888424FF00001C0F294
:100C70003D0248F2A16C4FF0000338BF01219042C1
:100C8000C0F2010C38BF0123654538BF0B4613B1D4
:100C9000012001B0F0BD4DF68361C4F21B31A0FB11
:100CA000011221684FEA924E4B684FF4967623F07A
:100CB0003F0343EA92434B6044F6D3530F6A0EFB63
:100CC00006F6C1F26203A6FB033627F03F03B7091D
:100CD000654538BF970C7A1C1A430A62CA6948F204
:100CE000A0674CF6FF73C0F20107BD4222EA030C75
:100CF0000AD801386A00B0FBF2F001306FF31F3000
:100D0000042898BF04202BE0A368A0F1010E9BB13A
:100D100019206843BEFBF0F00422013062F31F305B
:100D2000000512D09BB119206843BEFBF0F00422ED
:100D3000013062F31F3011E005EB4500BEFBF0F01F
:100D400001306FF31F300005ECD1012008E005EB06
:100D50004500BEFBF0F001306FF31F3040F400405F
:100D600040EA0C00C8610868D4E9072320F0C000FD
:100D7000104318430860886848F2FF3204F10C07FA
:100D800090438CCF18431043A6698860C86820F050
:100D9000FF0038433043C860086840F00100086035
:100DA00000202021206484F83D10206384F83E0058
:100DB00001B0F0BD2DE9F04782B09A46164688464C
:100DC0000446FFF725FF94F83D10202921D1DDF8D6
:100DD000289005462068806910F0020713D0FFF7BD
:100DE00017FF401B1A28F5D300202021206384F828
:100DF0003D1084F83E00216C002F41F02001216459
:100E000084F83C006DD194F83C00012806D10226FC
:100E100000E00226304602B0BDE8F08701212068DC
:100E200084F83C100168C90703D1016841F0010151
:100E30000160016821F400610160212184F83D1006
:100E4000102184F83E10002121646662A4F82AA0D3
:100E5000618D21850021CFF6FF71E162E16A11F514
:100E6000803F18BF012975D1016841F4807101608C
:100E7000406910F001002ED180F0010609F1010750
:100E800007E000BF2068406910F0010080F0010613
:100E900021D1002FF6D0FFF7BBFEB9F1000F02D031
:100EA000401B4845EED900202021206384F83D10E6
:100EB00084F83E00216C41F020012164F10784F8A0
:100EC0003C0008D0206801260068C00544BF4FF4EC
:100ED000007020649EE72069B0F5804F03D1FE21A9
:100EE00041E0022696E7062000EAD8112068F0319A
:100EF00001614169090735D44169490514D409F1F3
:100F0000010600BF4EB1FFF783FEB9F1000F00F0FC
:100F10001381401B484500F20F8120684169090791
:100F200020D441694905EDD50168012641F40071DD
:100F300001606FF48061416100202021206384F80A
:100F40003D1084F83E00216C41F00401216484F8D6
:100F50003C005FE708293FF487AF216B12293FF47B
:100F600083AF85E7FF21206801EA0801016141693B
:100F700089072DD44169490514D409F1010600BF40
:100F80004EB1FFF745FEB9F1000F00F0C680401BDF
:100F9000484500F2C28020684169890718D4416938
:100FA0004905EDD50168012641F4007101606FF437
:100FB0008061416100202021206384F83D1084F885
:100FC0003E00216C41F00401216484F83C0021E7DB
:100FD000002601962068416901918069019001987D
:100FE000208D002854D009F1010700BF206850F877
:100FF000141F09060FD40168490556D4002FF5D0F7
:10100000FFF706FEB9F1000F4FF0200151D0401B51
:101010004845EBD94DE0D4F824E02268704610F83A
:10102000013B13616062608D01386085B4F828C0AF
:101030001046ACF10103238550F8141F49070DD564
:1010400019040BD09EF8011011610EF102016162CA
:10105000618D01396185ACF102012185016802E0F1
:10106000206850F8141F49070FD40168490538D487
:10107000002FF5D0FFF7CCFDB9F1000F4FF02001A4
:1010800033D0401B4845EBD92FE0208D0028ADD14F
:101090002068016841F400710160202084F83D005F
:1010A00084F83E6084F83C60B4E66FF480610160CF
:1010B000042100202022206384F83D2084F83E0093
:1010C000226C1143216484F83C00206C042806D172
:1010D00020680126016841F4007101609AE601264A
:1010E00098E66FF4806101600421002020222063D3
:1010F00084F83D2084F83E00226C1143216484F87A
:101100003C00206C042806D120680126016841F4C7
:10111000007101607EE601267CE60020202120632C
:1011200084F83D1084F83E00216C012641F0200136
:10113000216484F83C006DE600202021206384F8BF
:101140003D1084F83E00216C012641F0200121640D
:1011500084F83C005EE600002DE9F04F85B00446BF
:101160000020984617460E460490FFF751FD94F86C
:101170003D10202922D1DDF84090DDF838B0054639
:101180002068806910F0020A14D0FFF741FD401B6F
:101190001A28F5D300202021206384F83D1084F81C
:1011A0003E00216CBAF1000F41F02001216484F867
:1011B0003C0003D194F83C00012803D1022005B083
:1011C000BDE8F08F0121206884F83C100168C90750
:1011D00003D1016841F00101016001683A4621F440
:1011E00000610160222084F83D00402084F83E0028
:1011F000002020640F98C4F824B06085608D3146CB
:1012000020850020CFF6FF70E06220464346CDF8EF
:101210000090019500F020FE18B1012005B0BDE856
:10122000F08F208D022810D0012824D0002838D13A
:10123000002003902068416903918169039103991B
:10124000016841F40071016037E02068016841F4F1
:1012500000610160EFF3108072B6002003902068F7
:1012600041690391816903910399016821F48061C7
:10127000016062B621E02068016821F480610160AC
:10128000EFF3108072B6002003902068416903914B
:10129000816903910399016841F40071016062B6AC
:1012A0000BE02068016841F4806101600021039136
:1012B00041690391806903900398208D002800F014
:1012C0003B814FF0010A09F101074FF0000834E0BB
:1012D0002020C4F8308084F83D0084F83E80206CE3
:1012E00040F020002064F00784F83C8095D1EFF3B3
:1012F000108072B62068616A026842F4007202606F
:1013000000690870606A218D01306062481E208586
:10131000608D0138608562B62068616A0069087076
:10132000606A218D01306062481E2085608D013821
:101330006085208D002800F0FF80042820D202283C
:101340003BD0012856D100BF2068416911F040060A
:10135000E2D14169C90600F1DD80FFF759FCB9F11E
:10136000000F02D0401B4845EED92020C4F8308041
:1013700084F83D0084F83E80206C40F02000D4E0EA
:101380002068416911F0400B40F0AF804169C90607
:1013900000F19980FFF73CFCB9F1000F02D0401B2F
:1013A0004845EDD92020C4F8308084F83D0084F809
:1013B0003E80206C40F0200090E02068406910F0F2
:1013C000040094D18AEA900608E000BF20684069D2
:1013D00010F004008AEA90067FF489AF002FF5D060
:1013E000FFF716FCB9F1000F3FF472AF401B484500
:1013F000ECD96DE72068406910F0040023D18AEA37
:10140000900606E02068406910F004008AEA900621
:1014100019D1002FF6D0FFF7FBFBB9F1000F02D076
:10142000401B4845EED92020C4F8308084F83D00A8
:1014300084F83E80206C40F020002064F00784F89F
:101440003C807FF4EAAE20684BF289520168C1F219
:10145000F84221F480610160EFF3108072B62068D9
:10146000616A00690870606A218D0130013960622B
:101470002185618D0139618540F20001C2F20001D0
:101480000968C908A1FB0212110A232251430491E1
:101490000499013904910499002954D021684A69BA
:1014A0005207F5D50A6842F400720A6009690170B2
:1014B000606A218D01306062481E2085608D013890
:1014C000608562B628E76FF0100141612020C4F802
:1014D000308084F83D0084F83E80206CBBF1000F22
:1014E000206484F83C803FF498AE2068616A00690B
:1014F0000870606A228D0130013A6062228521689D
:10150000628D013A62854A6952077FF512AF096917
:10151000017005E76FF0100141612020C4F83080B0
:1015200084F83D0084F83E80206C002E206484F80E
:101530003C807FF4F1AE70E6202084F83D0000206E
:1015400084F83E000CE000202021206384F83D1048
:1015500084F83E00206C40F02000206462B6012038
:10156000002184F83C1005B0BDE8F08F2DE9F04F64
:1015700083B0994616460F460446FFF749FB94F898
:101580003D10202922D1DDF83880DDF830B0054645
:101590002068806910F0020A14D0FFF739FB401B65
:1015A0001A28F5D300202021206384F83D1084F808
:1015B0003E00216CBAF1000F41F02001216484F853
:1015C0003C0003D194F83C00012803D1022003B071
:1015D000BDE8F08F0121206884F83C100168C9073C
:1015E00003D1016841F0010101600168324621F434
:1015F00000610160212084F83D00402084F83E0015
:10160000002020640D98C4F824B06085608D3946B0
:1016100020850020CFF6FF70E06220464B46CDF8D3
:101620000080019500F040FD18B1012003B0BDE835
:10163000F08F208DA8B308F1010600BF206850F894
:10164000141F09060FD40168490540D4002EF5D0B7
:10165000FFF7DEFAB8F1000F4FF020013BD0401B3E
:101660004045EBD937E0606A2168034613F8012B47
:101670000A61228D6362531E2385678D013F678552
:101680004F697F070AD51B0408D0437802300B61ED
:101690006062901E2085608D01386085208D002855
:1016A000CCD1204641462A4600F0E8FDF8B9206832
:1016B000016841F400710160202084F83D000020A1
:1016C00084F83E0084F83C0003B0BDE8F08F6FF46E
:1016D00080610160042100202022206384F83D20E5
:1016E00084F83E00226C1143216484F83C00206C95
:1016F00004289AD12068016841F40071016094E7E0
:1017000010B586B045F200410068C4F20001002225
:101710008842049202D006B010BD00BF41F2180406
:10172000C4F20204206840F008002060206800F045
:10173000080001900198C02002901220039003201D
:10174000059001F5384002A9FFF752F9606840F4AE
:1017500000106060606800F400100190019806B00D
:1017600010BD000040F2040040F2B801C2F20000D7
:10177000C2F2000100780A68104408607047000057
:1017800080B542F20000C4F20200016841F010018D
:101790000160032000F0AEF8052000F005F800F02D
:1017A0002BF8002080BD0000B0B540F20402C2F268
:1017B000000240F200011278C2F200014FF47A7385
:1017C0000968B3FBF2F20446B1FBF2F1084600F0FF
:1017D0002BFB0F2C4FF001050CD858B94FF0FF3000
:1017E00021460022002500F059F840F20800C2F21C
:1017F000000004602846B0BD80B582B041F21800F8
:10180000C4F202000168002241F001010160016898
:1018100001F0010101910199416841F0805141605D
:101820004068002100F0805000900098042000F0F3
:1018300035F8042000F022F805200021002200F0F5
:101840002DF8052000F01AF80420C4F20100016808
:10185000022262F31A61016002B080BD002848BF15
:10186000704700F01F01012202FA01F14EF28022BE
:101870004009CEF2000242F820107047002848BF0D
:10188000704700F01F01012202FA01F14EF200122E
:101890004009CEF2000242F82010704710B54EF613
:1018A0000C5CCEF2000CDCF80030C3F3022E8EF09C
:1018B0000704042C28BF0424BEF103034FF0FF3EAD
:1018C0000EFA04F438BF0023A14399400EFA03F343
:1018D0009A43114300F1604200F00F03090102F541
:1018E0006442043B6344002848BF03F10C021170BA
:1018F00010BD00004EF60C51CEF200010A684FF602
:10190000FF031A4060F30A2242F0806040F0FD704D
:10191000086070472DE9F04381B0002800F0858011
:1019200042F20008C4F202080446D8F800000D464E
:1019300000F0070088420CD2D8F8000020F0070021
:101940002843C8F80000D8F8000000F00700A842BB
:101950006BD1206841F204098107C4F2020917D54E
:10196000410705D5D9F8001041F4E061C9F800102D
:10197000010705D5D9F8001041F46051C9F80010ED
:10198000D9F80010A26821F0F0011143C9F8001045
:10199000C00741D1D8F8000000F00700A8420CD9D8
:1019A000D8F8000020F007002843C8F80000D8F855
:1019B000000000F00700A84237D12068410707D592
:1019C000D9F80010E26821F4E0611143C9F8001071
:1019D000000708D5D9F80000216920F4605040EADA
:1019E000C100C9F80000D9F8002002F00C00082856
:1019F00041F20020C0F27A004ED143F21633C2F316
:101A00008341C0F60003595CD20339D440F600107C
:101A1000C0F23D0048433FE06068022809D0012839
:101A200029D159F8041C890307D4012001B0BDE86D
:101A3000F08359F8041C8901F7D5D9F8001021F07A
:101A400003010843C9F80000FFF7E2F8064641F237
:101A5000883700BFD9F80000616800F00C00B0EBD7
:101A6000810F97D0FFF7D4F8801BB842F2D903203A
:101A700001B0BDE8F08359F8041C8907D5D5DCE72F
:101A8000D9F8002043F2FC23C2F34042C0F6000321
:101A90009A5C4843B0FBF2F0D9F8001043F2FE2202
:101AA000C1F30311C0F60002515C40F2000220FABB
:101AB00001F140F20800C2F200000068C2F2000228
:101AC0001160FFF771FE002001B0BDE8F083000057
:101AD00040F2000041F20401C2F20000C4F202012F
:101AE0000068096843F20E32C1F30221C0F6000219
:101AF000515CC840704700002DE9F04182B00028D9
:101B000000F0D7800446007841F20006C007C4F216
:101B1000020644D0706800F00C00042817D07068EA
:101B200000F00C00082802D17068C0030FD465686B
:101B30002DB1B5F5A02F10D0B5F5803F11D030688C
:101B400020F480303060306820F480200CE0306871
:101B5000800324D5606810BBABE0306840F480207F
:101B60003060306840F480303060FFF751F8002D6D
:101B7000054611D03068800311D4FFF749F8401BA7
:101B80006428F7D916E100BFFFF742F8401B64282C
:101B90004FF0030000F28A8030688003F4D420788C
:101BA000800718D5706810F00C0F07D0706800F02F
:101BB0000C00082827D17068C00324D4306880073F
:101BC00002D52069012874D13068616920F0F800DD
:101BD00040EAC1003060207800074FD5A06940B3CB
:101BE0000020C4F242200121C0F88014FFF710F851
:101BF000054600BF706A80072DD4FFF709F8401B27
:101C00000228F7D9D6E02069002840F20000C4F28B
:101C1000422000F0A68001210160FEF7F9FF054691
:101C200030688007D0D4FEF7F3FF401B0228F7D9B5
:101C3000C0E00020C4F242200021C0F88014FEF76A
:101C4000E7FF0546706A800718D5FEF7E1FF401BE5
:101C50000228F7D9AEE040F20000C2F200000068AE
:101C600044F6D351C1F26201A0FB0101480A019080
:101C700000BF0198411E00280191F9D1207840074A
:101C80001BD4E5698DB1706800F00C00082846D1BE
:101C9000012D0ED07068216A00F480328A4208D18A
:101CA000616A00F47010884203D1002002B0BDE8E0
:101CB000F081012002B0BDE8F081F06910F0805899
:101CC00008D1F06940F08050F061F06900F0805078
:101CD0000090009847F20007C4F200073868C0057A
:101CE0000FD4386840F480703860FEF791FF0546E5
:101CF0003868C00505D4FEF78BFF401B6428F7D970
:101D000058E0E5681DB1052D3CD0012D3ED0306A6C
:101D100020F001003062306A20F0040039E0002732
:101D2000C4F2422700203866FEF772FF022D0546F6
:101D30000CD100BF3068800154D5FEF769FF401B0D
:101D400002284FF00300F5D9B0E700BF30688001EA
:101D5000ABD5FEF75DFF401B02284FF00300F5D91D
:101D6000A4E700210160FEF753FF054630688007B5
:101D70007FF531AFFEF74CFF401B02284FF0030008
:101D8000F4D993E7306A40F004003062306A40F0E2
:101D900001003062FEF73CFF002D054641F2883716
:101DA00014D000BF306A800713D4FEF731FF401B08
:101DB000B842F7D9032002B0BDE8F081FEF728FF52
:101DC000401BB8424FF003003FF670AF306A800707
:101DD000F4D4B8F1000F7FF454AFF06920F08050D4
:101DE000F0614EE7206AB0F5803F05D17168A268C6
:101DF00021F40031114371607168626A21F4741139
:101E000011430843706001203866FEF701FF044665
:101E1000306880013FF549AFFEF7FAFE001B02284B
:101E20004FF00300F4D941E7411E0020B0EB116FE1
:101E30001CBF012070474EF21002CEF2000251602A
:101E40004EF62351CEF20001F0230B700721906073
:101E500011607047FEE700002DE9F04F83B00446A3
:101E6000006899460368904643F480620260026805
:101E7000DDF834A042F48072026040690C9E10F0DC
:101E800001008B4624D180F00105771C07E000BFDC
:101E90002068406910F0010080F0010518D1002F82
:101EA000F6D0FEF7B5FE1EB1A0EB0A00B042EFD9A6
:101EB00000202021206384F83D1084F83E00216C2E
:101EC00041F020012164E90784F83C0040F0A7803C
:101ED00020680BF0FE070761416989072BD441692F
:101EE000490513D4751C00BF4DB1FEF791FE002EBD
:101EF00000F0CE80A0EB0A00B04200F2C98020685A
:101F00004169890717D441694905EDD5016841F454
:101F1000007101606FF48061416100202021206325
:101F200084F83D1084F83E00216C41F004012164E6
:101F300084F83C0096E000200290206850F8141FBE
:101F400002914168029102990168090617D4751C33
:101F500005E000BF206850F8141F09060FD401687F
:101F6000490567D4002DF5D0FEF752FE002E4FF044
:101F7000200163D0A0EB0A00B042EBD95EE02068FC
:101F8000B9F1010F1ED04FEA1821016150F8141F5A
:101F9000090616D4751C04E0206850F8141F0906C1
:101FA0000FD40168490545D4002DF5D0FEF730FE69
:101FB000002E4FF0200141D0A0EB0A00B042EBD937
:101FC0003CE020685FFA88F10161206850F8141F36
:101FD000090615D4751C04E0206850F8141F090682
:101FE0000ED40168490525D4002DF5D0FEF710FE6A
:101FF0004FF0200116B3A0EB0A00B042ECD91DE06F
:10200000206800220168334641F480710160204657
:102010004FF00111CDF800A000F066F930B3206850
:102020000068C00544BF4FF400702064032003B073
:10203000BDE8F08F6FF48061016004210020202250
:10204000206384F83D2084F83E00226C1143216413
:1020500084F83C00206C042804D12068016841F415
:1020600000710160012003B0BDE8F08F206847F0E7
:10207000010101610221C0F20101204632465346AE
:1020800000F06CF9002818BF012003B0BDE8F08F04
:1020900000202021206384F83D1084F83E00216C4C
:1020A00041F0200143E700002DE9F04F81B00446E4
:1020B000006890460268DDF82CB042F4807202603D
:1020C00040690A9E994610F001008A462ED180F0A0
:1020D0000107751C07E000BF2068406910F001008F
:1020E00080F0010722D1002DF6D0FEF791FD1EB140
:1020F000A0EB0B00B042EFD900202021206384F830
:102100003D1084F83E00216C41F020012164F90764
:1021100084F83C000AD020680068C00544BF4FF432
:1021200000702064032001B0BDE8F08F20680AF041
:10213000FE010161416989072BD44169490513D426
:10214000771C00BF4FB1FEF763FD002E00F08A80C0
:10215000A0EB0B00B04200F285802068416989073E
:1021600017D441694905EDD5016841F4007101605A
:102170006FF48061416100202021206384F83D10CC
:1021800084F83E00216C41F00401216484F83C0095
:102190005CE000200090206850F8141F0091416816
:1021A000009100990168090616D4771C05E000BF6C
:1021B000206850F8141F09060ED4016849052DD473
:1021C000002FF5D0FEF724FD4FF0200156B3A0EB11
:1021D0000B00B042ECD925E02068B9F1010F3AD0EC
:1021E0004FEA1821016150F8141F090632D4771CF8
:1021F00005E000BF206850F8141F09062AD40168C2
:1022000049050BD4002FF5D0FEF702FD4FF0200159
:1022100046B1A0EB0B00B042ECD903E06FF4806153
:102220000160042100202022206384F83D2084F8EE
:102230003E00226C1143216484F83C00206C042889
:1022400004D12068016841F400710160012001B0EF
:10225000BDE8F08F20685FFA88F10161002001B0CD
:10226000BDE8F08F00202021206384F83D1084F821
:102270003E00216C41F0200187E70000F0B581B0FD
:1022800004460068154650F8143F5A0715D40E4608
:102290004F1C04E0206850F8141F49070DD4016852
:1022A00049050DD4002FF5D0FEF7B2FC4FF0200108
:1022B00056B1401BB042EDD906E0002001B0F0BDA0
:1022C0006FF480610160042100202022206384F8E3
:1022D0003D2084F83E00226C1143216484F83C00C8
:1022E000012001B0F0BD00002DE9F047DDF82080AD
:1022F0001D469246814601F47F078CB25E1C00BFEA
:10230000D9F800001821B7F5803F08BF14214058C4
:102310002040001BB0FA80F0400950451BD1002E30
:10232000EED0FEF775FC1DB1A0EB0800A842E7D97E
:1023300000202021C9F8300089F83D1089F83E00BE
:10234000D9F8401041F02001C9F8401089F83C004C
:102350000120BDE8F0870020BDE8F0872DE9F041BD
:1023600004460068984643698FB203EA0701B94200
:1023700002D10020BDE8F0814169490514D4164618
:10238000551C00BF45B1FEF743FC4FF020019EB144
:10239000A0EB0800B0420FD8206841693940B9422B
:1023A000E7D041694905EDD5016841F4007101604C
:1023B0006FF480614161042100202022206384F8B1
:1023C0003D2084F83E00226C1143216484F83C00D7
:1023D0000120BDE8F08100002DE9F04184B0012624
:1023E0000DF10F00CDE9000640F244004FF47A757C
:1023F000C2F20000D021752201230295FEF7ACFE47
:102400009DF80F00682834D140F24404C2F2000461
:102410004FF000080DF10E072046D0216B2201235A
:102420008DF80E80CDE900760295FFF79FF8072022
:102430008DF80E002046D02119220123CDE9007627
:102440000295FFF793F82046D0211C2201238DF836
:102450000E80CDE900760295FFF788F82046D0215E
:102460001B2201238DF80E80CDE900760295FFF73F
:102470007DF804B0BDE8F081F0B585B006200DF11F
:102480000E01CDE9001040F244004FF47A77C2F219
:102490000000D0213B2201230297FEF75DFEBDF82C
:1024A0000E0040F2100501BABDF81070090CC2F21E
:1024B0000005298039BABDF81260090C698031BA6B
:1024C000090CC0BAA980FDF70EFF0024C3F61074F2
:1024D00000222346FDF726FEFDF729FF2861F8BA02
:1024E000FDF701FF00222346FDF71CFEFDF71FFF4D
:1024F0006861F0BAFDF7F7FE00222346FDF712FEF1
:10250000FDF715FFA86105B0F0BD0000F0B585B07E
:1025100006200DF10E01CDE9001040F244004FF409
:102520007A77C2F20000D021432201230297FEF7FE
:1025300013FEBDF80E0040F2100501BABDF8107090
:10254000090CC2F20005E98039BABDF81260090C25
:10255000298131BA090CC0BA6981FDF7C4FE46F27F
:102560000004C4F2600400222346FDF74DFEFDF78F
:10257000DEFEE861F8BAFDF7B6FE00222346FDF75D
:1025800043FEFDF7D4FE2862F0BAFDF7ACFE002250
:102590002346FDF739FEFDF7CAFE686205B0F0BDBF
:1025A000FEE7000070470000704700007047000021
:1025B00070470000FFF7D6B870470000FEE7000044
:1025C0002DE9F04184B048F68C0040F24404C0F696
:1025D0000C00C2F2000402904FF0640802AA2046E8
:1025E0004E210423CDF80080FEF7E4FB42F62D16C1
:1025F0004627C0F60D1603AD20464E212A46042379
:102600000396CDF80080FEF7D5FB013FF4D104B06E
:10261000BDE8F08170B582B03220FEF7BDF840F21F
:10262000440443F63C06C2F20004C0F60C066425DE
:1026300001AA20464E21042301960095FEF7BAFB1D
:102640000520FEF7A9F801AA20464E210423019691
:102650000095FEF7AFFB0120FEF79EF801AA204689
:102660004E21042301960095FEF7A4FB0A20FEF7F5
:1026700093F842F62C00C0F60C00019001AA204607
:102680004E2104230095FEF795FB0A20FEF784F8FF
:1026900042F62C00C8F68C00019001AA20464E217B
:1026A00004230095FEF786FB0120FEF775F840F63F
:1026B0000C00C8F68C00019001AA20464E2104238C
:1026C0000095FEF777FB0120FEF766F840F60C0058
:1026D000C1F61C00019001AA20464E21042300955A
:1026E000FEF768FB0120FEF757F80120FEF754F8CB
:1026F00040F60C00C6F66C00019001AA20464E215F
:1027000004230095FEF756FB0120FEF745F840F63E
:102710000C00CCF6CC00019001AA20464E210423E7
:102720000095FEF747FB02B070BD0000012805D000
:10273000002808BF41F0800102E000BF41F0C00165
:1027400080B582B021F00F00090100F10C020830C1
:102750008DF8050001F10C008DF8060001F108006C
:102760008DF8070040F244008DF804204FF0640C0F
:10277000C2F2000001AA4E210423CDF800C0FEF7EA
:1027800019FB02B080BD0000F0B583B0017821B321
:1027900040F24404461E6427C2F2000402AD00BFAA
:1027A00021F00F00090100F10D0209308DF8090038
:1027B00001F10D008DF80A0001F109008DF80820E3
:1027C0008DF80B0020464E212A4604230097FEF781
:1027D000F1FAB17801360029E2D103B0F0BD000072
:1027E00090B0FEF7CDFF00264FF480304FF0020886
:1027F000CDE90706CDE90D804FF4E01001270F90D9
:1028000006A8CDE90B66CDE9096606970A97FFF79A
:1028100073F90F20CDE901084FF48060CDE904067B
:1028200001A802210396FFF775F841F21800C4F2DF
:102830000200016840F6000441F0200101600168D7
:10284000C4F2010401F020010691069901680022FA
:1028500041F0040101600168C02501F00401069106
:102860000699016841F0080101600068C02100F08C
:102870000800069006982046FEF7C4F9CDE90657F1
:1028800006AD20462946CDE90868FEF7B1F80320D9
:1028900006900020C1F22100CDE9070704F5806011
:1028A0002946FEF7A5F8062004210022FEF7F6FFD0
:1028B0000620FEF7E3FF072003210022FEF7EEFFCC
:1028C0000720FEF7DBFF40F24400A4F53441C2F2DA
:1028D000000048F2A0624FF48043C0F2010280E899
:1028E0004600C0E90363C0E90566C0E90766FEF774
:1028F00095F9FFF78FFEFFF76FFD4FF47A70FDF744
:102900004BFF00BF00F002F8FCE7000070B582B09A
:1029100040F60004C4F20104FFF7AEFDFFF7F6FD38
:1029200040F21006C2F200063069FDF7EDFC06F138
:1029300028050B46009021A228460A21019300F0A9
:102940004FF8307BC0071DD16420FDF725FFFFF74E
:1029500037FE00200021FFF7E9FE1EA0FFF714FF5D
:1029600000200A21FFF7E2FE2846FFF70DFF204670
:102970004021FEF73FF94FF47A7002B0BDE8704095
:10298000FDF70ABF204640210022FEF73BF9FFF782
:1029900017FE00200021FFF7C9FE09A0FFF7F4FE93
:1029A00001200121FFF7C2FE2846FFF7EDFE4FF49C
:1029B0007A7002B0BDE87040FDF7EEBE25660000FB
:1029C00050415553452D2D2D2D2D2D2D2D2D2D2D9A
:1029D00000000000536F2062756F63203A200000F2
:1029E0000FB47CB50C0009AD01D0611E00E00021E0
:1029F000CDE90001064B6A462946089800F0DCF84C
:102A0000002C02D0009A002111707CBC5DF814FBF0
:102A1000E732000802E008C8121F08C1002AFAD1F4
:102A200070477047002001E001C1121F002AFBD14E
:102A3000704700002DE9FF5F82B00021DDE904301E
:102A4000020DDDF840B0034318D044F61050A2F256
:102A5000FF3242431514119801281FD0A5EB0B003B
:102A6000401C5FEA000A4FF000064E4FDFF8389135
:102A7000B046504615D5CAF1000413E01198012460
:102A80004AA3012801D16FEA0B010298119AC0E90B
:102A90000031C0E9024206B0BDE8F09FCBF1000072
:102AA000DFE704460021404A491842EB0450CDE9D3
:102AB000001012E0E00707D032463B464046494648
:102AC000FDF730FB8046894632463B4610461946A4
:102AD000FDF728FB06460F466410002CEAD1DDE91D
:102AE0000401DDE90023BAF1000F06DAFDF71AFB55
:102AF00042464B46FDF716FB05E0FDF785FB4246D7
:102B00004B46FDF781FB04460E460022284BFDF79D
:102B1000C5FD03D84FF0FF30014607E00022254BEA
:102B200020463146FDF7FAFCFDF79FFD102409E031
:102B3000002C0ADB0A220023FDF72BFC039B30321A
:102B40001A55641E50EA0102F2D1641C039AC4F1C2
:102B500011031444119A012A03D0012208430DD114
:102B60000AE0084304D000204FF0110B119072E7E7
:102B7000A3EB0B056D1E0DE05B4504DD4FF000027D
:102B800005F1010504E003DA4FF00002A5F10105AB
:102B9000002AECD002981199C0E90231C0E9004541
:102BA00079E70000000014400000F03F3000000012
:102BB0000000F0430000E03F2DE9FF4F95B09B4639
:102BC0008946064600250FE2252877D100242746AE
:102BD000F84A0121059400E0044316F8013F203B28
:102BE00001FA03F01042F7D130782A2811D06FF0A3
:102BF0002F033078A0F13002092A16D8059A44F044
:102C0000020402EB820203EB42021044761C0590A0
:102C1000EFE759F8042B0592002A03DA504244F4F6
:102C20000054059044F00204761C30782E2816D10A
:102C300016F8010F44F004042A280DD06FF02F027B
:102C40003078A0F13003092B09D807EB870302EB9A
:102C50004303C718761CF3E759F8047B761C3078D9
:102C60006C280FD006DC4C2817D068280DD06A28B5
:102C700014D104E0742810D07A280FD10DE044F468
:102C800000140AE044F4801401E044F44014727823
:102C9000824202D104F58014761C761C30786628B6
:102CA0000BD013DC582877D009DC002875D04528D4
:102CB000F6D04628F4D047281AD19DE118E06328C1
:102CC00035D0642879D0652812D195E1702873D069
:102CD00008DC6728F1D069286FD06E280DD06F28E6
:102CE00006D1B5E073282CD0752875D0782874D01B
:102CF0005A46179990476D1C75E1C4F3025002289B
:102D000009D003280DD0D9F8001004280DD00D608B
:102D100009F1040967E1D9F80010EA17C1E9005286
:102D2000F6E7D9F800100D80F2E70D70F0E719F81A
:102D3000041B8DF8001000208DF80100EA460120E8
:102D400003E059F804AB4FF0FF3061074FF000018A
:102D500002D40DE008F101018846B9420FDA80453E
:102D6000F8DB1AF808100029F4D108E008F1010195
:102D700088468142FADB1AF808100029F6D1059836
:102D80005B46A0EB080721463846179A00F094FAF4
:102D9000284400EB080507E04DE029E10DE01AF8B2
:102DA000010B5A4617999047B8F10108F7D25B46D4
:102DB00021463846179A13E142E00A220092C4F3F2
:102DC00002524FF0000A022A08D059F804CB032A15
:102DD0004FEAEC710AD00DE029E02AE009F1070181
:102DE00021F00702F2E802C1914609E00FFA8CFCDB
:102DF0004FEAEC71042A03D14FFA8CFC4FEAEC71D4
:102E0000002907DA0A460021DCF1000C61EB02011F
:102E10002D2202E0220504D52B228DF80420012268
:102E200003E0E20701D02022F7E7904659E00A21AB
:102E300002E010220DE010214FF0000A00910BE09B
:102E400010224FF0000A44F004040827009203E027
:102E500008224FF0000A0092C4F30252022A05D061
:102E600059F804CB0021032A08D009E009F1070131
:102E700021F00702F2E802C1914605E01FFA8CFC3E
:102E8000042A01D10CF0FF0C4FF00008220728D5CE
:102E9000702806D0009B83F0100353EA0A0305D084
:102EA0000EE040228DF80420012208E05CEA0102D5
:102EB00006D030228DF804208DF8050002229046BD
:102EC000009B83F0080353EA0A030AD15CEA01027B
:102ED00001D1620705D530228DF804204FF001089A
:102EE0007F1E582804D034A003900EA802900DE055
:102EF00036A0F9E753466046009AFDF74AFA844641
:102F00000398825C0298401E029002705CEA010005
:102F1000F0D1029806A9081A00F1200A600702D52C
:102F200024F4803400E00127574502DDA7EB0A00B6
:102F300000E0002000EB0A01009005984144401A8F
:102F40000590E00306D45B462146179A059800F0E9
:102F5000B3F90544002706E001A85A46C05D179959
:102F600090476D1C7F1C4745F6DBE0030CD55B46A4
:102F70002146179A059800F09FF9054404E0302097
:102F80005A46179990476D1C0099481E00900029D9
:102F9000F5DC08E0029802995A460078491C029133
:102FA000179990476D1CBAF10001AAF1010AF1DCF2
:102FB00065E10000092801003031323334353637FD
:102FC0003839616263646566000000003031323375
:102FD0003435363738394142434445460000000015
:102FE00000F058F90544761C307800287FF4ECADE9
:102FF00019B02846BDE8F08F620700D4062709F112
:10300000070222F0070CFCE80223E14603F0004827
:103010005FEA080C02D00FF2702C0DE05FEA045C4E
:1030200002D50FF2682C07E05FEAC47C02D00FF2F1
:10303000602C01E0AFF2700C4FF0FF3823F000433A
:10304000CDF850C065280CD006DC452809D04628AC
:103050001DD047283DD13DE0662818D067287ED195
:1030600038E00021112F01DB112000E0781CCDE9B0
:10307000000106A90EA8FFF7DDFCDDE90F010E9A9D
:1030800003910021009207F1010A04914DE04FF0F5
:1030900000400097CDE9011006A90EA8FFF7CAFC71
:1030A000DDE90F0203920E9B11990022DDF80CA0BE
:1030B0000093049211B9791C00EB010AB7EB0A00E6
:1030C00004D4C0F1FF3007F1010A0490AAEB070015
:1030D000019044E0012F00DA01270021112F01DDCA
:1030E000112000E03846CDE9000106A90EA8FFF73F
:1030F000A1FCDDE90F010E9A0391002104910092D9
:10310000BA4621070CD40399514500DA8A46BAF130
:10311000010F05DD009AAAF10101515C302908D0A8
:10312000B84202DA10F1040F06DA0121CDE90110EC
:1031300015E0AAF10101E9E7002805DC0499014442
:103140000491AAEB000102E0411C514500DD8A46D2
:103150000499401A401C01904FF000400290200753
:1031600004D40198504501DBCDF8048000208DF88F
:103170004F0002980DF14F07B0F1004F25D02B20E2
:103180000E9002984FF0020800280CDA404202909C
:103190002D200E9007E00A210298FDF7E4F8303167
:1031A000029007F8011DB8F10001A8F10108F2DC56
:1031B00002980028EFD1791E0E980870307800F040
:1031C000200040F0450007F8020D12A8C01B00F1D6
:1031D00007081498007800B1012000EB0A0101985B
:1031E00001EBE07105984144401A401E0590E00350
:1031F00006D45B462146179A059800F05DF8054411
:103200001498007818B15A46179990476D1CE0033E
:1032100024D55B462146179A059800F04DF80544E1
:103220001CE00498002807DBDDE90301884203DD88
:103230000098405C179901E0179930205A46904752
:10324000049805F10105401C04900198401E01906E
:1032500004D12E205A46179990476D1CBAF10001EF
:10326000AAF1010ADDDC05E017F8010B5A461799AF
:1032700090476D1CB8F10001A8F10108F4DC5B4631
:103280002146179A0598ABE62D0000002B000000A0
:10329000200000002DE9F041044600251E46174697
:1032A000880404D405E039462020B0476D1C641E14
:1032B000F9D52846BDE8F0812DE9F0410446002506
:1032C0001E469046C80301D5302700E02027880419
:1032D00004D505E041463846B0476D1C641EF9D55B
:1032E0002846BDE8F0814A68002A06D00A68531CC7
:1032F0000B6010704868401E486070470102000073
:103300000000000000000102030406070809000095
:1033100000000102030402030405060708090A0B62
:103320000C0D0E0F101000004833000800000020A4
:1033300010000000142A0008583300081000002074
:10334000B0040000242A00080024F400010000005A
:08335000100000000000000065
:04000005080000ED02
:00000001FF
