:020000040800F2
:100000004004002001010008B90C0008B10C0008F0
:10001000B50C000849010008D10C000800000000E0
:10002000000000000000000000000000C50C0008F7
:100030004D01000800000000BD0C0008C90C0008BC
:100040001B0100081B0100081B0100081B01000820
:1000500061010008C10C00085101000859010008A5
:100060001B0100081B0100081B0100081B01000800
:100070001B0100081B0100081B0100081B010008F0
:100080001B0100081B0100081B0100081B010008E0
:100090001B0100081B0100081B0100081B010008D0
:1000A0001B0100081B0100081B0100081B010008C0
:1000B0001B0100081B0100081B0100081B010008B0
:1000C0001B0100081B0100081B0100081B010008A0
:1000D0001B0100081B0100081B0100081B01000890
:1000E0001B0100081B0100081B010008DFF80CD0F1
:1000F00000F018F800480047D50C00084004002024
:100100000648804706480047FEE7FEE7FEE7FEE7B1
:10011000FEE7FEE7FEE7FEE7FEE7FEE7CD0C0008A0
:10012000ED000008064C074D06E0E06840F00103D2
:1001300094E8070098471034AC42F6D3FFF7DAFF93
:10014000300E0008500E0008FEE700007047000067
:10015000012000F027B90000022000F023B90000C0
:1001600000F02AB840F21801C2F200010022CA6170
:1001700042F21001C4F202010A6842F002020A606F
:100180004860086840F0400008607047B0B5044619
:1001900000F024FA054640F20400C2F200000078A4
:1001A000611C18BF044400BF00F018FA401BA042B5
:1001B000FAD3B0BD7047000070B542F21004C4F22B
:1001C000020454F8040C40F21805C006C2F20005FF
:1001D0005CBF54F8040C5FEA407029D54FF0FF3142
:1001E000A868A96054F8041CC90601D4002104E0E1
:1001F000E96941F00201E961102154F8042C520729
:1002000005D5EA6941F0040142F00102EA61E268C1
:10021000D20707D0EA6942F00402EA61E26822F0FC
:100220000102E26044F8041C00F07AF80020287013
:1002300054F8040C800663D5202044F8040C287878
:1002400000285DD02878012812D1686801386860DC
:100250006868C8B3A868FFF7ADFFA86800F58060BC
:10026000A860216821F002012160FFF77BFF47E0D1
:100270002878022809D12068002620F00400206098
:100280000020FFF797FF2E703AE068680138686039
:10029000686818B3A8680230A860A868D5E9041295
:1002A000090C41EA0241120CC5E90412216821F04F
:1002B00001012160D5E904120022EA61226842F0BE
:1002C0000102226001801BE04FF0FF30A860002097
:1002D00028704FF0FF30FFF76DFF11E028780328FA
:1002E00001D1A86805E02978A868042914BF063858
:1002F0000238FFF75FFF4FF0FF30A8600020287042
:100300002878002818BF70BD206820F00700206002
:10031000206820F4A05020600020287670BD0000E6
:100320007047000010B5022826D0012818BF10BD64
:1003300040F60004C4F201042046802100F040F998
:1003400040F21000C2F200000168013101606FF359
:100350005E01012904D120464021002200F038F935
:100360004FF61441CFF6FF71012206206250BDE81E
:10037000104000F0B5B900BF40F2100040F6000494
:10038000C2F200000021C4F20104016020464021B5
:10039000002200F01DF9204680210022BDE8104017
:1003A00000F016B940F21441C4F201010A68024299
:1003B00014BF08607047FFF7B5BF00002DE9F04F8C
:1003C00082B00E68002E00F0F88040F20C4C40F233
:1003D000004E41F20042C4F2010CC4F2010EC4F21C
:1003E00001020427002401234FF0000A4FF0000906
:1003F000904208BF0327009741E0012704F00C0357
:100400000F229A402BEA020207FA03F34FEA9A05F9
:100410001A4346F825204E68F203DEF8002054BF48
:1004200022EA080242EA0802CEF80020DEF80420A0
:10043000B30354BF22EA080242EA0802CEF80420BD
:10044000F302DEF8082054BF22EA080242EA08025A
:10045000B302CEF80820DCF800204FF0010354BFAF
:1004600022EA080242EA0802CCF800200E680AF1EB
:10047000010A36FA0AF204F1040400F09E8003FA3D
:100480000AFB16EA0B08F1D04E684FF6FF72C1F274
:100490001002964210DC122E50D8DFE806F0330A24
:1004A00041454F4F4F4F4F4F4F4F4F4F4F4F4F487B
:1004B0004C00D1F80C9041E04FF6FF72C1F22102DE
:1004C00096420FDC0022C1F2110296421AD000229D
:1004D000C1F21202964215D00022C1F221029642C8
:1004E00010D02BE00022C1F2220296420AD0002254
:1004F000C1F23102964205D00022C1F23202964288
:100500001CD100BF8A6842B1012A14BFC0F814B0E0
:10051000C0F810B04FF0080910E04FF004090DE0EA
:10052000CA6802F1080909E04FF0000906E0CA684C
:1005300002F1040902E0CA6802F10C0922460646EB
:10054000B8F5807F24BF203A043637680F259540E0
:1005500027EA050509FA02F22A433260CA79D2066F
:100560007FF584AF41F21803C4F202031A68AEF5B6
:100570007E7642F001021A601A6802F001020192CE
:10058000019A2AF0030256F802B040F60002C4F2C3
:10059000010290420FD040F60042C4F201029042A4
:1005A0003FF42BAF41F20002C4F20102009F9042DF
:1005B00008BF022722E7002720E702B0BDE8F08F3E
:1005C000C26802EA0103914341EA034101617047B5
:1005D000002A08BF090401617047000040F238009A
:1005E000C2F200000068704740F2040040F2380197
:1005F000C2F20000C2F2000100780A6810440860EC
:100600007047000080B542F20000C4F202000168A9
:1006100041F010010160032000F0AEF8002000F06E
:1006200005F800F02BF8002080BD0000B0B540F2C6
:100630000402C2F2000240F200011278C2F200018C
:100640004FF47A730968B3FBF2F20446B1FBF2F19E
:10065000084600F017FB0F2C4FF001050CD858B9D5
:100660004FF0FF3021460022002500F059F840F2FB
:100670000800C2F2000004602846B0BD80B582B018
:1006800041F21800C4F202000168002241F00101A9
:100690000160016801F0010101910199416841F097
:1006A000805141604068002100F080500090009827
:1006B000042000F035F8042000F022F80520002185
:1006C000002200F02DF8052000F01AF80420C4F2F2
:1006D00001000168022262F31A61016002B080BD6C
:1006E000002848BF704700F01F01012202FA01F103
:1006F0004EF280224009CEF2000242F820107047EC
:10070000002848BF704700F01F01012202FA01F1E2
:100710004EF200124009CEF2000242F8201070475B
:1007200010B54EF60C5CCEF2000CDCF80030C3F3D2
:10073000022E8EF00704042C28BF0424BEF103030C
:100740004FF0FF3E0EFA04F438BF0023A143994056
:100750000EFA03F39A43114300F1604200F00F03D5
:10076000090102F56442043B6344002848BF03F1D9
:100770000C02117010BD00004EF60C51CEF20001BB
:100780000A684FF6FF031A4060F30A2242F08060C5
:1007900040F0FD70086070472DE9F04381B00028FB
:1007A00000F0858042F20008C4F202080446D8F83E
:1007B00000000D4600F0070088420CD2D8F8000077
:1007C00020F007002843C8F80000D8F8000000F027
:1007D0000700A8426BD1206841F204098107C4F2E6
:1007E000020917D5410705D5D9F8001041F4E06199
:1007F000C9F80010010705D5D9F8001041F460517F
:10080000C9F80010D9F80010A26821F0F0011143D6
:10081000C9F80010C00741D1D8F8000000F0070067
:10082000A8420CD9D8F8000020F007002843C8F8E7
:100830000000D8F8000000F00700A84237D1206877
:10084000410707D5D9F80010E26821F4E0611143AF
:10085000C9F80010000708D5D9F80000216920F474
:10086000605040EAC100C9F80000D9F8002002F049
:100870000C00082841F20020C0F27A004ED140F668
:100880002063C2F38341C0F60003595CD20339D41C
:1008900040F60010C0F23D0048433FE06068022887
:1008A00009D0012829D159F8041C890307D4012053
:1008B00001B0BDE8F08359F8041C8901F7D5D9F8D7
:1008C000001021F003010843C9F80000FFF786FE7D
:1008D000064641F2883700BFD9F80000616800F091
:1008E0000C00B0EB810F97D0FFF778FE801BB84269
:1008F000F2D9032001B0BDE8F08359F8041C890740
:10090000D5D5DCE7D9F8002040F60E63C2F34042AB
:10091000C0F600039A5C4843B0FBF2F0D9F800102F
:1009200040F61062C1F30311C0F60002515C40F2C0
:10093000000220FA01F140F20800C2F20000006853
:10094000C2F200021160FFF771FE002001B0BDE8A5
:10095000F08300002DE9F04182B0002800F0D7803C
:100960000446007841F20006C007C4F2020644D0F3
:10097000706800F00C00042817D0706800F00C00BC
:10098000082802D17068C0030FD465682DB1B5F591
:10099000A02F10D0B5F5803F11D0306820F4803002
:1009A0003060306820F480200CE03068800324D56B
:1009B000606810BBABE0306840F480203060306885
:1009C00040F480303060FFF709FE002D054611D05D
:1009D0003068800311D4FFF701FE401B6428F7D96B
:1009E00016E100BFFFF7FAFD401B64284FF003003B
:1009F00000F28A8030688003F4D42078800718D50C
:100A0000706810F00C0F07D0706800F00C00082818
:100A100027D17068C00324D43068800702D52069CC
:100A2000012874D13068616920F0F80040EAC10003
:100A30003060207800074FD5A06940B30020C4F291
:100A400042200121C0F88014FFF7C8FD054600BF11
:100A5000706A80072DD4FFF7C1FD401B0228F7D92B
:100A6000D6E02069002840F20000C4F2422000F0E5
:100A7000A68001210160FFF7B1FD054630688007BF
:100A8000D0D4FFF7ABFD401B0228F7D9C0E000200F
:100A9000C4F242200021C0F88014FFF79FFD0546F4
:100AA000706A800718D5FFF799FD401B0228F7D917
:100AB000AEE040F20000C2F20000006844F6D351FC
:100AC000C1F26201A0FB0101480A019000BF019838
:100AD000411E00280191F9D1207840071BD4E56917
:100AE0008DB1706800F00C00082846D1012D0ED0A1
:100AF0007068216A00F480328A4208D1616A00F489
:100B00007010884203D1002002B0BDE8F0810120BE
:100B100002B0BDE8F081F06910F0805808D1F069AA
:100B200040F08050F061F06900F080500090009833
:100B300047F20007C4F200073868C0050FD43868D0
:100B400040F480703860FFF749FD05463868C005FD
:100B500005D4FFF743FD401B6428F7D958E0E5684A
:100B60001DB1052D3CD0012D3ED0306A20F0010092
:100B70003062306A20F0040039E00027C4F24227D6
:100B800000203866FFF72AFD022D05460CD100BF74
:100B90003068800154D5FFF721FD401B02284FF03B
:100BA0000300F5D9B0E700BF30688001ABD5FFF78F
:100BB00015FD401B02284FF00300F5D9A4E70021E2
:100BC0000160FFF70BFD0546306880077FF531AF08
:100BD000FFF704FD401B02284FF00300F4D993E710
:100BE000306A40F004003062306A40F00100306248
:100BF000FFF7F4FC002D054641F2883714D000BF02
:100C0000306A800713D4FFF7E9FC401BB842F7D9DC
:100C1000032002B0BDE8F081FFF7E0FC401BB842C2
:100C20004FF003003FF670AF306A8007F4D4B8F19C
:100C3000000F7FF454AFF06920F08050F0614EE770
:100C4000206AB0F5803F05D17168A26821F40031B7
:100C5000114371607168626A21F474111143084391
:100C6000706001203866FFF7B9FC044630688001E7
:100C70003FF549AFFFF7B2FC001B02284FF003001D
:100C8000F4D941E7411E0020B0EB116F1CBF0120D9
:100C900070474EF21002CEF2000251604EF6235120
:100CA000CEF20001F0230B700721906011607047B5
:100CB000FEE70000FEE700007047000070470000FC
:100CC0007047000070470000FFF78EBC70470000BF
:100CD000FEE7000090B040F60004C4F20104FFF704
:100CE00091FC00254FF480304FF00208CDE9070554
:100CF000CDE90D804FF4E01001260F9006A8CDE954
:100D00000B55CDE9095506960A96FFF723FE0F20ED
:100D1000CDE901084FF48060CDE9040501A8022166
:100D20000395FFF739FD41F21800C4F20200016893
:100D3000002241F0200101600168C02701F020017C
:100D400006910699016841F004010160016801F013
:100D5000040106910699016841F0080101600068EC
:100D6000C02100F00800069006982046FFF730FCEE
:100D7000CDE9085806AD20462946CDE90676FFF7AD
:100D80001DFB032006900020C1F22100CDE90706DB
:100D900004F580602946FFF711FB0620042100229C
:100DA000FFF7BEFC0620FFF7ABFC07200321002263
:100DB000FFF7B6FC0720FFF7A3FC40F21005C2F2D4
:100DC00000052878C00707D0204640210022FFF701
:100DD000FFFB2878C007F7D120464021FFF7F0FB42
:100DE0004FF47A70FFF7D2F92878C007F4D0EBE718
:100DF00002E008C8121F08C1002AFAD170477047E4
:100E0000002001E001C1121F002AFBD1704701023E
:100E100000000000000000000102030406070809AA
:100E200002030405060708090A0B0C0D0E0F10102B
:100E3000500E00080000002010000000F00D000817
:100E4000600E00081000002030040000000E0008B2
:100E50000024F40001000000100000000000000069
:04000005080000ED02
:00000001FF
