:020000040800F2
:10000000A833002001010008A9240008251D0008CC
:10001000A524000805060008C1240008000000000F
:10002000000000000000000000000000B5240008EF
:100030000906000800000000AD240008B9240008EB
:100040001B0100081B0100081B0100081B01000820
:100050001D060008B12400080D060008150600085A
:100060001B0100081B0100081B0100081B01000800
:100070001B0100081B0100081B0100081B010008F0
:100080001B0100081B0100081B0100081B010008E0
:100090001B0100081B0100081B0100081B010008D0
:1000A0001B0100081B0100081B0100081B010008C0
:1000B0001B0100081B0100081B0100081B010008B0
:1000C0001B0100081B0100081B0100081B010008A0
:1000D0001B0100081B0100081B0100081B01000890
:1000E0001B0100081B0100081B010008DFF80CD0F1
:1000F00000F056FA00480047DD260008A83300202B
:100100000648804706480047FEE7FEE7FEE7FEE7B1
:10011000FEE7FEE7FEE7FEE7FEE7FEE7BD24000898
:10012000ED000008F0B480EA0102D40F4200B2EB07
:10013000410F02D20246084611464A0042D0C30D82
:10014000DDB2C1F3C752AD1A202D35DAC1F3160165
:1001500041F4000204B15242C5F1200602FA06F150
:100160002A411044B3EBD05F23D0C4B1012DA0EBE2
:10017000C35009DCF0BC4FF0004202EAC352DBB2CC
:1001800000F5000000F052B9400000F1807000EB73
:10019000C350A0F1807040EAD170490009E04908DD
:1001A00041EAC071A0EBC35000F50000400800EB2D
:1001B000C350F0BC00F031B96142012202EB4101B1
:1001C000001BF6E7F0BC704781F00041AAE780F021
:1001D0000040A7E780EA010210B502F000434000AA
:1001E00022D04A001FD0010E01EB1261C0F356006D
:1001F000C2F3560240F4000042F40002A0FB0220C9
:1002000000047F39140400D0401C50EA124001D48D
:100210004000491EC2B20C0604EBD010401C40083E
:10022000802A02D003E0002010BD20F00100002948
:1002300000DA0020184310BD2DE9FE4F81EA0304C7
:1002400004F0004421F0004100944FF0000B23F033
:10025000004350EA01045ED052EA03045BD0C3F3CA
:100260000A54C1F30A552C44A4F2F3340194A0FBC0
:100270000254C1F3130141F48011C3F3130343F497
:10028000801301FB024400FB034E840A970A44EAF0
:10029000815447EA8357A4FB076802958D0A05FB42
:1002A00007854FEA932C04FB0C542705029D4FEA67
:1002B000065847EA1637B5EB08056EEB070C870EB4
:1002C000920E47EA811742EA8312A7FB0201B6EBBE
:1002D0000B0164EB00042B0D43EA0C335E1844EB76
:1002E0001C50DA465146E7FB0201C5F313044FEAFE
:1002F0000B3343EA14534FEA0432019C43EA0603EA
:10030000A4F10C040294009CCDE900B400F0FAF8CA
:1003100003B0BDE8F08F00200146F9E7002801DBBB
:10032000C0F10040002901DBC1F10041814201D848
:10033000012070470020704730B5041E71F10004A1
:1003400004DB4FF00044404264EB0101141E73F1E2
:10035000000405DB1C464FF00043524263EB0403EC
:10036000801A994101D3012030BD002030BD0EB567
:10037000C10F80EAE0700844CA07002140F233430D
:100380008DE80E000A460B4600F0BCF803B000BD35
:1003900000F0004230F000400AD0C10D01F560715C
:1003A000C0F3160042EA0151C208400711437047EA
:1003B00000200146704701F0004330B421F00041B5
:1003C00050EA010206D00A0DA2F56072C1F31301D2
:1003D000002A02DC30BC00207047440F44EAC1040C
:1003E000C100E01830BC00EBC25000F016B830B5C8
:1003F0000B46014600202022012409E021FA02F5E3
:100400009D4205D303FA02F5491B04FA02F528447C
:10041000151EA2F10102F1DC30BD0029A8BF704712
:10042000401C490008BF20F00100704710B4B0FA2A
:1004300080FC00FA0CF050EA010404BF10BC7047C5
:1004400049B1CCF1200421FA04F411FA0CF118BFDF
:10045000012121430843A3EB0C01CB1D4FEA0061AE
:100460004FEA102042BF002010BC704700EBC35081
:1004700010440029A4BF10BC7047401C490008BFAD
:1004800020F0010010BC7047F0B4002802DCF0BC82
:1004900000207047C0F3C751C0F3160040F40000BD
:1004A000CA0701D14000491E3F2202EB610500222C
:1004B00011464FF4000626FA01F31344D41884427F
:1004C00001D8001B1A464000491C1729F3DD5100D2
:1004D000814202D24FF0FF3100E0002102EBC55013
:1004E000F0BCFFF79ABF10B5141E73F1000408DAD0
:1004F000401C41F1000192185B411A4301D120F0E8
:10050000010010BD2DE9F04D92469B4611B1B1FAA4
:1005100081F202E0B0FA80F22032904600F052F808
:1005200004460F4640EA0A0041EA0B0153465A4688
:10053000084313D0114653EA010019D0C8F1400214
:10054000504600F04EF805460E4650465946424683
:1005500000F038F8084305D0012004E02046394671
:10056000BDE8F08D0020054346EAE0762C43374392
:100570000A986305E40AA0EB08000022FD0A44EA99
:1005800047540A3002D500200146E9E70105101959
:100590006941DDE9084500196941BDE8F04DA2E770
:1005A000064C074D06E0E06840F0010394E80700C0
:1005B00098471034AC42F6D3FFF79CFD3C2B000863
:1005C0005C2B0008202A04DB203A00FA02F100200C
:1005D00070479140C2F1200320FA03F31943904081
:1005E0007047202A04DB203A21FA02F000217047EC
:1005F00021FA02F3D040C2F120029140084319468B
:1006000070470000FEE7000070470000012000F086
:100610004BB90000022000F047B9000000F02AB8F2
:1006200042F68071C2F200010022CA6142F210015A
:10063000C4F202010A6842F002020A6048600868D7
:1006400040F0400008607047B0B5044600F048FA3A
:10065000054640F20C00C2F200000078611C18BF91
:10066000044400BF00F03CFA401BA042FAD3B0BDE6
:100670007047000070B542F21004C4F2020454F84E
:10068000040C42F68075C006C2F200055CBF54F847
:10069000040C5FEA407029D54FF0FF31A868A960CB
:1006A00054F8041CC90601D4002104E0E96941F0B2
:1006B0000201E961102154F8042C520705D5EA69BA
:1006C00041F0040142F00102EA61E268D20707D07A
:1006D000EA6942F00402EA61E26822F00102E260A3
:1006E00044F8041C00F07AF80020287054F8040C38
:1006F000800663D5202044F8040C287800285DD0BB
:100700002878012812D16868013868606868C8B321
:10071000A868FFF7ADFFA86800F58060A8602168B1
:1007200021F002012160FFF77BFF47E028780228D3
:1007300009D12068002620F0040020600020FFF787
:1007400097FF2E703AE0686801386860686818B3EF
:10075000A8680230A860A868D5E90412090C41EA2B
:100760000241120CC5E90412216821F00101216047
:10077000D5E904120022EA61226842F001022260F7
:1007800001801BE04FF0FF30A860002028704FF080
:10079000FF30FFF76DFF11E02878032801D1A8682A
:1007A00005E02978A868042914BF06380238FFF745
:1007B0005FFF4FF0FF30A8600020287028780028E5
:1007C00018BF70BD206820F007002060206820F46A
:1007D000A05020600020287670BD00007047000007
:1007E00010B5022826D0012818BF10BD40F600041D
:1007F000C4F201042046802100F064F940F21800A0
:10080000C2F200008168013181606FF35E0101294D
:1008100004D120464021002200F05CF94FF614413B
:10082000CFF6FF71012206206250BDE8104000F0B3
:100830007DBF00BF40F20801C2F2000140F2180380
:100840000A68C2F20003002040F600049860002A03
:10085000D8605EBF40F2A003C2F2000343F822005A
:100860000120C4F20104086020464021002200F06B
:1008700031F920468021002200F02CF901F022FEFF
:100880000020002101F0D0FE02A0BDE8104001F0E0
:10089000F9BE00BF52455345542E2E2E2E2E2E2E1D
:1008A0002E2E2E2E0000000040F21441C4F2010151
:1008B0000A68024214BF08607047FFF791BF00004A
:1008C0002DE9F04F82B00E68002E00F0F88040F263
:1008D0000C4C40F2004E41F20042C4F2010CC4F252
:1008E000010EC4F201020427002401234FF0000A84
:1008F0004FF00009904208BF0327009741E001270D
:1009000004F00C030F229A402BEA020207FA03F3C9
:100910004FEA9A051A4346F825204E68F203DEF89E
:10092000002054BF22EA080242EA0802CEF8002062
:10093000DEF80420B30354BF22EA080242EA0802A8
:10094000CEF80420F302DEF8082054BF22EA0802A1
:1009500042EA0802B302CEF80820DCF800204FF08B
:10096000010354BF22EA080242EA0802CCF8002040
:100970000E680AF1010A36FA0AF204F1040400F0E2
:100980009E8003FA0AFB16EA0B08F1D04E684FF678
:10099000FF72C1F21002964210DC122E50D8DFE82E
:1009A00006F0330A41454F4F4F4F4F4F4F4F4F4F78
:1009B0004F4F4F484C00D1F80C9041E04FF6FF727A
:1009C000C1F2210296420FDC0022C1F211029642CE
:1009D0001AD00022C1F21202964215D00022C1F2B2
:1009E0002102964210D02BE00022C1F22202964250
:1009F0000AD00022C1F23102964205D00022C1F293
:100A0000320296421CD100BF8A6842B1012A14BF4B
:100A1000C0F814B0C0F810B04FF0080910E04FF063
:100A200004090DE0CA6802F1080909E04FF0000965
:100A300006E0CA6802F1040902E0CA6802F10C0982
:100A400022460646B8F5807F24BF203A0436376830
:100A50000F25954027EA050509FA02F22A4332607C
:100A6000CA79D2067FF584AF41F21803C4F20203BB
:100A70001A68AEF57E7642F001021A601A6802F03A
:100A800001020192019A2AF0030256F802B040F6E0
:100A90000002C4F2010290420FD040F60042C4F2BC
:100AA000010290423FF42BAF41F20002C4F2010276
:100AB000009F904208BF022722E7002720E702B0EC
:100AC000BDE8F08FC26802EA0103914341EA0341A5
:100AD00001617047002A08BF0904016170470000E6
:100AE00042F6A070C2F2000000687047F0B581B015
:100AF000B0B3044690F83D0028B9002084F83C00CB
:100B0000204600F065FD242084F83D00206801683F
:100B100021F001010160016841F4004101600168B8
:100B200021F40041016000F03BFF48F28041C0F237
:100B30001E0140F60012656888424FF00001C0F2C5
:100B40003D0248F2A16C4FF0000338BF01219042F2
:100B5000C0F2010C38BF0123654538BF0B4613B105
:100B6000012001B0F0BD4DF68361C4F21B31A0FB42
:100B7000011221684FEA924E4B684FF4967623F0AB
:100B80003F0343EA92434B6044F6D3530F6A0EFB94
:100B900006F6C1F26203A6FB033627F03F03B7094E
:100BA000654538BF970C7A1C1A430A62CA6948F235
:100BB000A0674CF6FF73C0F20107BD4222EA030CA6
:100BC0000AD801386A00B0FBF2F001306FF31F3031
:100BD000042898BF04202BE0A368A0F1010E9BB16C
:100BE00019206843BEFBF0F00422013062F31F308D
:100BF000000512D09BB119206843BEFBF0F004221F
:100C0000013062F31F3011E005EB4500BEFBF0F050
:100C100001306FF31F300005ECD1012008E005EB37
:100C20004500BEFBF0F001306FF31F3040F4004090
:100C300040EA0C00C8610868D4E9072320F0C0002E
:100C4000104318430860886848F2FF3204F10C072B
:100C500090438CCF18431043A6698860C86820F081
:100C6000FF0038433043C860086840F00100086066
:100C700000202021206484F83D10206384F83E0089
:100C800001B0F0BD2DE9F04782B09A46164688467D
:100C90000446FFF725FF94F83D10202921D1DDF807
:100CA000289005462068806910F0020713D0FFF7EE
:100CB00017FF401B1A28F5D300202021206384F859
:100CC0003D1084F83E00216C002F41F0200121648A
:100CD00084F83C006DD194F83C00012806D102262E
:100CE00000E00226304602B0BDE8F087012120680E
:100CF00084F83C100168C90703D1016841F0010183
:100D00000160016821F400610160212184F83D1037
:100D1000102184F83E10002121646662A4F82AA004
:100D2000618D21850021CFF6FF71E162E16A11F545
:100D3000803F18BF012975D1016841F480710160BD
:100D4000406910F001002ED180F0010609F1010781
:100D500007E000BF2068406910F0010080F0010644
:100D600021D1002FF6D0FFF7BBFEB9F1000F02D062
:100D7000401B4845EED900202021206384F83D1017
:100D800084F83E00216C41F020012164F10784F8D1
:100D90003C0008D0206801260068C00544BF4FF41D
:100DA000007020649EE72069B0F5804F03D1FE21DA
:100DB00041E0022696E7062000EAD8112068F031CB
:100DC00001614169090735D44169490514D409F124
:100DD000010600BF4EB1FFF783FEB9F1000F00F02E
:100DE0001381401B484500F20F81206841690907C3
:100DF00020D441694905EDD50168012641F400710F
:100E000001606FF48061416100202021206384F83B
:100E10003D1084F83E00216C41F00401216484F807
:100E20003C005FE708293FF487AF216B12293FF4AC
:100E300083AF85E7FF21206801EA0801016141696C
:100E400089072DD44169490514D409F1010600BF71
:100E50004EB1FFF745FEB9F1000F00F0C680401B10
:100E6000484500F2C28020684169890718D4416969
:100E70004905EDD50168012641F4007101606FF468
:100E80008061416100202021206384F83D1084F8B6
:100E90003E00216C41F00401216484F83C0021E70C
:100EA00000260196206841690191806901900198AE
:100EB000208D002854D009F1010700BF206850F8A8
:100EC000141F09060FD40168490556D4002FF5D028
:100ED000FFF706FEB9F1000F4FF0200151D0401B83
:100EE0004845EBD94DE0D4F824E02268704610F86C
:100EF000013B13616062608D01386085B4F828C0E1
:100F00001046ACF10103238550F8141F49070DD595
:100F100019040BD09EF8011011610EF102016162FB
:100F2000618D01396185ACF102012185016802E022
:100F3000206850F8141F49070FD40168490538D4B8
:100F4000002FF5D0FFF7CCFDB9F1000F4FF02001D5
:100F500033D0401B4845EBD92FE0208D0028ADD180
:100F60002068016841F400710160202084F83D0090
:100F700084F83E6084F83C60B4E66FF48061016000
:100F8000042100202022206384F83D2084F83E00C4
:100F9000226C1143216484F83C00206C042806D1A3
:100FA00020680126016841F4007101609AE601267B
:100FB00098E66FF480610160042100202022206304
:100FC00084F83D2084F83E00226C1143216484F8AB
:100FD0003C00206C042806D120680126016841F4F9
:100FE000007101607EE601267CE60020202120635E
:100FF00084F83D1084F83E00216C012641F0200168
:10100000216484F83C006DE600202021206384F8F0
:101010003D1084F83E00216C012641F0200121643E
:1010200084F83C005EE600002DE9F04F85B00446F0
:101030000020984617460E460490FFF751FD94F89D
:101040003D10202922D1DDF84090DDF838B005466A
:101050002068806910F0020A14D0FFF741FD401BA0
:101060001A28F5D300202021206384F83D1084F84D
:101070003E00216CBAF1000F41F02001216484F898
:101080003C0003D194F83C00012803D1022005B0B4
:10109000BDE8F08F0121206884F83C100168C90781
:1010A00003D1016841F00101016001683A4621F471
:1010B00000610160222084F83D00402084F83E0059
:1010C000002020640F98C4F824B06085608D3146FC
:1010D00020850020CFF6FF70E06220464346CDF821
:1010E0000090019500F020FE18B1012005B0BDE888
:1010F000F08F208D022810D0012824D0002838D16C
:10110000002003902068416903918169039103994C
:10111000016841F40071016037E02068016841F422
:1011200000610160EFF3108072B600200390206828
:1011300041690391816903910399016821F48061F8
:10114000016062B621E02068016821F480610160DD
:10115000EFF3108072B6002003902068416903917C
:10116000816903910399016841F40071016062B6DD
:101170000BE02068016841F4806101600021039167
:1011800041690391806903900398208D002800F045
:101190003B814FF0010A09F101074FF0000834E0EC
:1011A0002020C4F8308084F83D0084F83E80206C14
:1011B00040F020002064F00784F83C8095D1EFF3E4
:1011C000108072B62068616A026842F400720260A0
:1011D00000690870606A218D01306062481E2085B8
:1011E000608D0138608562B62068616A00690870A8
:1011F000606A218D01306062481E2085608D013853
:101200006085208D002800F0FF80042820D202286D
:101210003BD0012856D100BF2068416911F040063B
:10122000E2D14169C90600F1DD80FFF759FCB9F14F
:10123000000F02D0401B4845EED92020C4F8308072
:1012400084F83D0084F83E80206C40F02000D4E01B
:101250002068416911F0400B40F0AF804169C90638
:1012600000F19980FFF73CFCB9F1000F02D0401B60
:101270004845EDD92020C4F8308084F83D0084F83A
:101280003E80206C40F0200090E02068406910F023
:10129000040094D18AEA900608E000BF2068406903
:1012A00010F004008AEA90067FF489AF002FF5D091
:1012B000FFF716FCB9F1000F3FF472AF401B484531
:1012C000ECD96DE72068406910F0040023D18AEA68
:1012D000900606E02068406910F004008AEA900653
:1012E00019D1002FF6D0FFF7FBFBB9F1000F02D0A8
:1012F000401B4845EED92020C4F8308084F83D00DA
:1013000084F83E80206C40F020002064F00784F8D0
:101310003C807FF4EAAE20684BF289520168C1F24A
:10132000F84221F480610160EFF3108072B620680A
:10133000616A00690870606A218D0130013960625C
:101340002185618D0139618540F20401C2F20001FD
:101350000968C908A1FB0212110A23225143049112
:101360000499013904910499002954D021684A69EB
:101370005207F5D50A6842F400720A6009690170E3
:10138000606A218D01306062481E2085608D0138C1
:10139000608562B628E76FF0100141612020C4F833
:1013A000308084F83D0084F83E80206CBBF1000F53
:1013B000206484F83C803FF498AE2068616A00693C
:1013C0000870606A228D0130013A606222852168CE
:1013D000628D013A62854A6952077FF512AF096949
:1013E000017005E76FF0100141612020C4F83080E2
:1013F00084F83D0084F83E80206C002E206484F840
:101400003C807FF4F1AE70E6202084F83D0000209F
:1014100084F83E000CE000202021206384F83D1079
:1014200084F83E00206C40F02000206462B6012069
:10143000002184F83C1005B0BDE8F08F2DE9F04F95
:1014400083B0994616460F460446FFF749FB94F8C9
:101450003D10202922D1DDF83880DDF830B0054676
:101460002068806910F0020A14D0FFF739FB401B96
:101470001A28F5D300202021206384F83D1084F839
:101480003E00216CBAF1000F41F02001216484F884
:101490003C0003D194F83C00012803D1022003B0A2
:1014A000BDE8F08F0121206884F83C100168C9076D
:1014B00003D1016841F0010101600168324621F465
:1014C00000610160212084F83D00402084F83E0046
:1014D000002020640D98C4F824B06085608D3946E2
:1014E00020850020CFF6FF70E06220464B46CDF805
:1014F0000080019500F040FD18B1012003B0BDE867
:10150000F08F208DA8B308F1010600BF206850F8C5
:10151000141F09060FD40168490540D4002EF5D0E8
:10152000FFF7DEFAB8F1000F4FF020013BD0401B6F
:101530004045EBD937E0606A2168034613F8012B78
:101540000A61228D6362531E2385678D013F678583
:101550004F697F070AD51B0408D0437802300B611E
:101560006062901E2085608D01386085208D002886
:10157000CCD1204641462A4600F0E8FDF8B9206863
:10158000016841F400710160202084F83D000020D2
:1015900084F83E0084F83C0003B0BDE8F08F6FF49F
:1015A00080610160042100202022206384F83D2016
:1015B00084F83E00226C1143216484F83C00206CC6
:1015C00004289AD12068016841F40071016094E711
:1015D00010B586B045F200410068C4F20001002257
:1015E0008842049202D006B010BD00BF41F2180438
:1015F000C4F20204206840F008002060206800F077
:10160000080001900198C02002901220039003204E
:10161000059001F5384002A9FFF752F9606840F4DF
:1016200000106060606800F400100190019806B03E
:1016300010BD000040F20C0042F6A071C2F20000A2
:10164000C2F2000100780A68104408607047000088
:1016500080B542F20000C4F20200016841F01001BE
:101660000160032000F0AEF8052000F005F800F05E
:101670002BF8002080BD0000B0B540F20C02C2F291
:10168000000240F204011278C2F200014FF47A73B2
:101690000968B3FBF2F20446B1FBF2F1084600F030
:1016A0002BFB0F2C4FF001050CD858B94FF0FF3031
:1016B00021460022002500F059F840F21000C2F245
:1016C000000004602846B0BD80B582B041F2180029
:1016D000C4F202000168002241F0010101600168CA
:1016E00001F0010101910199416841F0805141608F
:1016F0004068002100F0805000900098042000F025
:1017000035F8042000F022F805200021002200F026
:101710002DF8052000F01AF80420C4F20100016839
:10172000022262F31A61016002B080BD002848BF46
:10173000704700F01F01012202FA01F14EF28022EF
:101740004009CEF2000242F820107047002848BF3E
:10175000704700F01F01012202FA01F14EF200125F
:101760004009CEF2000242F82010704710B54EF644
:101770000C5CCEF2000CDCF80030C3F3022E8EF0CD
:101780000704042C28BF0424BEF103034FF0FF3EDE
:101790000EFA04F438BF0023A14399400EFA03F374
:1017A0009A43114300F1604200F00F03090102F572
:1017B0006442043B6344002848BF03F10C021170EB
:1017C00010BD00004EF60C51CEF200010A684FF633
:1017D000FF031A4060F30A2242F0806040F0FD707F
:1017E000086070472DE9F04381B0002800F0858043
:1017F00042F20008C4F202080446D8F800000D4680
:1018000000F0070088420CD2D8F8000020F0070052
:101810002843C8F80000D8F8000000F00700A842EC
:101820006BD1206841F204098107C4F2020917D57F
:10183000410705D5D9F8001041F4E061C9F800105E
:10184000010705D5D9F8001041F46051C9F800101E
:10185000D9F80010A26821F0F0011143C9F8001076
:10186000C00741D1D8F8000000F00700A8420CD909
:10187000D8F8000020F007002843C8F80000D8F886
:10188000000000F00700A84237D12068410707D5C3
:10189000D9F80010E26821F4E0611143C9F80010A2
:1018A000000708D5D9F80000216920F4605040EA0B
:1018B000C100C9F80000D9F8002002F00C00082887
:1018C00041F20020C0F27A004ED142F62833C2F332
:1018D0008341C0F60003595CD20339D440F60010AE
:1018E000C0F23D0048433FE06068022809D001286B
:1018F00029D159F8041C890307D4012001B0BDE89F
:10190000F08359F8041C8901F7D5D9F8001021F0AB
:1019100003010843C9F80000FFF7E2F8064641F268
:10192000883700BFD9F80000616800F00C00B0EB08
:10193000810F97D0FFF7D4F8801BB842F2D903206B
:1019400001B0BDE8F08359F8041C8907D5D5DCE760
:10195000D9F8002042F60E33C2F34042C0F600032D
:101960009A5C4843B0FBF2F0D9F8001042F610320E
:10197000C1F30311C0F60002515C40F2040220FAE8
:1019800001F140F21000C2F200000068C2F2000251
:101990001160FFF771FE002001B0BDE8F083000088
:1019A00040F2040041F20401C2F20000C4F202015C
:1019B0000068096842F62032C1F30221C0F6000235
:1019C000515CC840704700002DE9F04182B000280A
:1019D00000F0D7800446007841F20006C007C4F248
:1019E000020644D0706800F00C00042817D070681C
:1019F00000F00C00082802D17068C0030FD465689D
:101A00002DB1B5F5A02F10D0B5F5803F11D03068BD
:101A100020F480303060306820F480200CE03068A2
:101A2000800324D5606810BBABE0306840F48020B0
:101A30003060306840F480303060FFF751F8002D9E
:101A4000054611D03068800311D4FFF749F8401BD8
:101A50006428F7D916E100BFFFF742F8401B64285D
:101A60004FF0030000F28A8030688003F4D42078BD
:101A7000800718D5706810F00C0F07D0706800F060
:101A80000C00082827D17068C00324D43068800770
:101A900002D52069012874D13068616920F0F8000E
:101AA00040EAC1003060207800074FD5A06940B3FC
:101AB0000020C4F242200121C0F88014FFF710F882
:101AC000054600BF706A80072DD4FFF709F8401B58
:101AD0000228F7D9D6E02069002840F20000C4F2BD
:101AE000422000F0A68001210160FEF7F9FF0546C3
:101AF00030688007D0D4FEF7F3FF401B0228F7D9E7
:101B0000C0E00020C4F242200021C0F88014FEF79B
:101B1000E7FF0546706A800718D5FEF7E1FF401B16
:101B20000228F7D9AEE040F20400C2F200000068DB
:101B300044F6D351C1F26201A0FB0101480A0190B1
:101B400000BF0198411E00280191F9D1207840077B
:101B50001BD4E5698DB1706800F00C00082846D1EF
:101B6000012D0ED07068216A00F480328A4208D1BB
:101B7000616A00F47010884203D1002002B0BDE811
:101B8000F081012002B0BDE8F081F06910F08058CA
:101B900008D1F06940F08050F061F06900F08050A9
:101BA0000090009847F20007C4F200073868C005AB
:101BB0000FD4386840F480703860FEF791FF054616
:101BC0003868C00505D4FEF78BFF401B6428F7D9A1
:101BD00058E0E5681DB1052D3CD0012D3ED0306A9E
:101BE00020F001003062306A20F0040039E0002764
:101BF000C4F2422700203866FEF772FF022D054628
:101C00000CD100BF3068800154D5FEF769FF401B3E
:101C100002284FF00300F5D9B0E700BF306880011B
:101C2000ABD5FEF75DFF401B02284FF00300F5D94E
:101C3000A4E700210160FEF753FF054630688007E6
:101C40007FF531AFFEF74CFF401B02284FF0030039
:101C5000F4D993E7306A40F004003062306A40F013
:101C600001003062FEF73CFF002D054641F2883747
:101C700014D000BF306A800713D4FEF731FF401B39
:101C8000B842F7D9032002B0BDE8F081FEF728FF83
:101C9000401BB8424FF003003FF670AF306A800738
:101CA000F4D4B8F1000F7FF454AFF06920F0805005
:101CB000F0614EE7206AB0F5803F05D17168A268F7
:101CC00021F40031114371607168626A21F474116A
:101CD00011430843706001203866FEF701FF044697
:101CE000306880013FF549AFFEF7FAFE001B02287D
:101CF0004FF00300F4D941E7411E0020B0EB116F13
:101D00001CBF012070474EF21002CEF2000251605B
:101D10004EF62351CEF20001F0230B7007219060A4
:101D200011607047FEE700002DE9F04F83B00446D4
:101D3000006899460368904643F480620260026836
:101D4000DDF834A042F48072026040690C9E10F00D
:101D500001008B4624D180F00105771C07E000BF0D
:101D60002068406910F0010080F0010518D1002FB3
:101D7000F6D0FEF7B5FE1EB1A0EB0A00B042EFD9D7
:101D800000202021206384F83D1084F83E00216C5F
:101D900041F020012164E90784F83C0040F0A7806D
:101DA00020680BF0FE070761416989072BD4416960
:101DB000490513D4751C00BF4DB1FEF791FE002EEE
:101DC00000F0CE80A0EB0A00B04200F2C98020688B
:101DD0004169890717D441694905EDD5016841F486
:101DE000007101606FF48061416100202021206357
:101DF00084F83D1084F83E00216C41F00401216418
:101E000084F83C0096E000200290206850F8141FEF
:101E100002914168029102990168090617D4751C64
:101E200005E000BF206850F8141F09060FD40168B0
:101E3000490567D4002DF5D0FEF752FE002E4FF075
:101E4000200163D0A0EB0A00B042EBD95EE020682D
:101E5000B9F1010F1ED04FEA1821016150F8141F8B
:101E6000090616D4751C04E0206850F8141F0906F2
:101E70000FD40168490545D4002DF5D0FEF730FE9A
:101E8000002E4FF0200141D0A0EB0A00B042EBD968
:101E90003CE020685FFA88F10161206850F8141F67
:101EA000090615D4751C04E0206850F8141F0906B3
:101EB0000ED40168490525D4002DF5D0FEF710FE9B
:101EC0004FF0200116B3A0EB0A00B042ECD91DE0A0
:101ED000206800220168334641F480710160204689
:101EE0004FF00111CDF800A000F066F930B3206882
:101EF0000068C00544BF4FF400702064032003B0A5
:101F0000BDE8F08F6FF48061016004210020202281
:101F1000206384F83D2084F83E00226C1143216444
:101F200084F83C00206C042804D12068016841F446
:101F300000710160012003B0BDE8F08F206847F018
:101F4000010101610221C0F20101204632465346DF
:101F500000F06CF9002818BF012003B0BDE8F08F35
:101F600000202021206384F83D1084F83E00216C7D
:101F700041F0200143E700002DE9F04F81B0044615
:101F8000006890460268DDF82CB042F4807202606E
:101F900040690A9E994610F001008A462ED180F0D1
:101FA0000107751C07E000BF2068406910F00100C0
:101FB00080F0010722D1002DF6D0FEF791FD1EB171
:101FC000A0EB0B00B042EFD900202021206384F861
:101FD0003D1084F83E00216C41F020012164F90796
:101FE00084F83C000AD020680068C00544BF4FF464
:101FF00000702064032001B0BDE8F08F20680AF073
:10200000FE010161416989072BD44169490513D457
:10201000771C00BF4FB1FEF763FD002E00F08A80F1
:10202000A0EB0B00B04200F285802068416989076F
:1020300017D441694905EDD5016841F4007101608B
:102040006FF48061416100202021206384F83D10FD
:1020500084F83E00216C41F00401216484F83C00C6
:102060005CE000200090206850F8141F0091416847
:10207000009100990168090616D4771C05E000BF9D
:10208000206850F8141F09060ED4016849052DD4A4
:10209000002FF5D0FEF724FD4FF0200156B3A0EB42
:1020A0000B00B042ECD925E02068B9F1010F3AD01D
:1020B0004FEA1821016150F8141F090632D4771C29
:1020C00005E000BF206850F8141F09062AD40168F3
:1020D00049050BD4002FF5D0FEF702FD4FF020018B
:1020E00046B1A0EB0B00B042ECD903E06FF4806185
:1020F0000160042100202022206384F83D2084F820
:102100003E00226C1143216484F83C00206C0428BA
:1021100004D12068016841F400710160012001B020
:10212000BDE8F08F20685FFA88F10161002001B0FE
:10213000BDE8F08F00202021206384F83D1084F852
:102140003E00216C41F0200187E70000F0B581B02E
:1021500004460068154650F8143F5A0715D40E4639
:102160004F1C04E0206850F8141F49070DD4016883
:1021700049050DD4002FF5D0FEF7B2FC4FF0200139
:1021800056B1401BB042EDD906E0002001B0F0BDD1
:102190006FF480610160042100202022206384F814
:1021A0003D2084F83E00226C1143216484F83C00F9
:1021B000012001B0F0BD00002DE9F047DDF82080DE
:1021C0001D469246814601F47F078CB25E1C00BF1B
:1021D000D9F800001821B7F5803F08BF14214058F6
:1021E0002040001BB0FA80F0400950451BD1002E62
:1021F000EED0FEF775FC1DB1A0EB0800A842E7D9B0
:1022000000202021C9F8300089F83D1089F83E00EF
:10221000D9F8401041F02001C9F8401089F83C007D
:102220000120BDE8F0870020BDE8F0872DE9F041EE
:1022300004460068984643698FB203EA0701B94231
:1022400002D10020BDE8F0814169490514D4164649
:10225000551C00BF45B1FEF743FC4FF020019EB175
:10226000A0EB0800B0420FD8206841693940B9425C
:10227000E7D041694905EDD5016841F4007101607D
:102280006FF480614161042100202022206384F8E2
:102290003D2084F83E00226C1143216484F83C0008
:1022A0000120BDE8F08100002DE9F04184B0012655
:1022B0000DF10F00CDE9000640F24C004FF47A75A5
:1022C000C2F20000D021752201230295FEF7ACFE78
:1022D0009DF80F00682834D140F24C04C2F200048B
:1022E0004FF000080DF10E072046D0216B2201238C
:1022F0008DF80E80CDE900760295FFF79FF8072054
:102300008DF80E002046D02119220123CDE9007658
:102310000295FFF793F82046D0211C2201238DF867
:102320000E80CDE900760295FFF788F82046D0218F
:102330001B2201238DF80E80CDE900760295FFF770
:102340007DF804B0BDE8F0812DE9F04385B040F29E
:102350001809C2F20009D9F8080040F208086FF322
:102360005E000128C2F2000804D0D8F80000013055
:10237000C8F8000006200DF10E01CDE9001040F272
:102380004C004FF47A77C2F20000D0213B220123A7
:102390000297FEF749FEBDF80E00BDF8106001BAC5
:1023A000090CA9F8001031BABDF81270090CA9F88F
:1023B000021039BA090CC0BAA9F80410FDF7D7FF0A
:1023C0000025C3F6107500222B46FDF735FFFDF7FB
:1023D000F2FF0446C9F81000F0BAFDF7C8FF00226A
:1023E0002B46FDF729FFFDF7E6FF0646C9F8140066
:1023F000F8BAFDF7BCFF00222B46FDF71DFFFDF7E5
:10240000DAFF0546C9F8180030463146FDF7E2FE0E
:10241000064620462146FDF7DDFE3146FDF782FEE9
:10242000044628462946FDF7D5FE2146FDF77AFEEB
:1024300000F057FB0146C9F81C00D8F8000040F234
:10244000A002C2F2000202EB800656F8044C42F8E9
:1024500020102046FDF762FF05462046FDF798FF55
:10246000EDB949F69A1249F69913C9F69912C3F6CD
:10247000F173FDF761FF90B956F8081C2046FDF78F
:102480004DFF60B9D9F808000121C8F200010840E9
:10249000012804D0D9F80C000130C9F80C0005B0AF
:1024A000BDE8F083FEE700007047000070470000C1
:1024B0007047000070470000FFF7BCB8704700008D
:1024C000FEE700002DE9F04184B048F68C0040F2B0
:1024D0004C04C0F60C00C2F2000402904FF06408F5
:1024E00002AA20464E210423CDF80080FEF7CAFB45
:1024F00042F62D164627C0F60D1603AD20464E2196
:102500002A4604230396CDF80080FEF7BBFB013F6B
:10251000F4D104B0BDE8F08170B582B040F24C0453
:1025200043F63C06C2F20004C0F60C06642501AA7C
:1025300020464E21042301960095FEF7A3FB0520BB
:10254000FEF782F801AA20464E2104230196009549
:10255000FEF798FB0120FEF777F801AA20464E21EE
:10256000042301960095FEF78DFB0A20FEF76CF818
:1025700042F62C00C0F60C00019001AA20464E2124
:1025800004230095FEF77EFB0A20FEF75DF842F675
:102590002C00C8F68C00019001AA20464E2104238D
:1025A0000095FEF76FFB0120FEF74EF840F60C0099
:1025B000C8F68C00019001AA20464E210423009504
:1025C000FEF760FB0120FEF73FF840F60C00C1F675
:1025D0001C00019001AA20464E2104230095FEF71D
:1025E00051FB0120FEF730F80120FEF72DF840F6F0
:1025F0000C00C6F66C00019001AA20464E2104236F
:102600000095FEF73FFB0120FEF71EF840F60C0098
:10261000CCF6CC00019001AA20464E21042300955F
:10262000FEF730FB02B070BD012805D0002808BFBE
:1026300041F0800102E000BF41F0C00180B582B0EE
:1026400021F00F00090100F10C0208308DF805009F
:1026500001F10C008DF8060001F108008DF807006B
:1026600040F24C008DF804204FF0640CC2F20000E0
:1026700001AA4E210423CDF800C0FEF703FB02B0EF
:1026800080BD0000F0B583B0017821B340F24C0466
:10269000461E6427C2F2000402AD00BF21F00F0005
:1026A000090100F10D0209308DF8090001F10D005A
:1026B0008DF80A0001F109008DF808208DF80B0053
:1026C00020464E212A4604230097FEF7DBFAB17814
:1026D00001360029E2D103B0F0BD000090B0FEF752
:1026E000B7FF00264FF480304FF00208CDE907060F
:1026F000CDE90D804FF4E01001270F9006A8CDE939
:102700000B66CDE9096606970A97FFF75DF90F207A
:10271000CDE901084FF48060CDE9040601A802214B
:102720000396FFF75FF841F21800C4F20200016857
:1027300040F6000441F0200101600168C4F2010488
:1027400001F02001069106990168002241F0040180
:1027500001600168C02501F0040106910699016835
:1027600041F0080101600068C02100F008000690F7
:1027700006982046FEF7AEF9CDE9065706AD20468D
:102780002946CDE90868FEF79BF803200690002053
:10279000C1F22100CDE9070704F580602946FEF764
:1027A0008FF8062004210022FEF7E0FF0620FEF746
:1027B000CDFF072003210022FEF7D8FF0720FEF7F8
:1027C000C5FF40F24C00A4F53441C2F2000048F2CB
:1027D000A0624FF48043C0F2010280E84600C0E9E5
:1027E0000363C0E90566C0E90766FEF77FF9FFF7F6
:1027F00093FEFFF759FD4FF47A70FDF725FF00BFF8
:1028000000F002F8FCE700002DE9F04140F6000876
:10281000C4F20108FFF798FD40F21804C2F2000468
:1028200042F63837E26804F12005C0F60007284672
:10283000394600F07DF840F20800C2F2000000685E
:1028400004F12A06421E3046394600F071F8207A1B
:10285000C0072FD1FFF736FE00200021FFF7E4FE6E
:102860002BA0FFF70FFF00200A21FFF7DDFE28460F
:10287000FFF708FF01200021FFF7D6FE27A0FFF792
:1028800001FF01200C21FFF7CFFE3046FFF7FAFED3
:1028900001200F21FFF7C8FE24A0FFF7F3FE4046FA
:1028A0004021FEF70FF94FF47A70BDE8F041FDF7D3
:1028B000CBBE00BF404640210022FEF70BF9FFF7D8
:1028C00001FE00200021FFF7AFFE09A0FFF7DAFEAE
:1028D00001200021FFF7A8FE0AA0FFF7D3FE28463B
:1028E000FFF7D0FE4FF47A70BDE8F041FDF7ACBEC3
:1028F00050415553452D2D2D2D2D2D2D2D2D2D2D6B
:1029000000000000546F6E6720736F203A200000B3
:10291000536F2062756F63203A20000054686F691E
:10292000206769616E203A200000000073000000FB
:102930000FB4084B10B504A902AA039800F022F8BE
:10294000044602A9002000F0C7F8204610BC5DF83C
:1029500014FB0000D92A000802E008C8121F08C1B1
:10296000002AFAD170477047002001E001C1121F10
:10297000002AFBD170470000014908607047000041
:10298000000000202DE9FF4F89B09B46044600253A
:1029900006E025280BD05A460B999047641C6D1C05
:1029A00020780028F5D10DB02846BDE8F08F00272B
:1029B000B8460122474900E0074314F8013F203B95
:1029C00002FA03F00842F7D120782E2819D114F822
:1029D000010F47F004072A280ED06FF02F0220784D
:1029E000A0F1300109290CD808EB880102EB410164
:1029F00000EB0108641CF2E70A98641C50F8048B91
:102A00000A9020780028CED0642808D0692806D003
:102A100075281ED05A460B9990476D1C58E00A99AC
:102A20004FF00A0901C90A91002802DA40422D211B
:102A300002E0390504D52B218DF82010012103E097
:102A4000F90704D02021F7E78A4608AE0DE00021FF
:102A5000FAE70A994FF00A0901C90A91F7E74946CE
:102A6000FDF7C5FC303106F8011D0028F7D1ADEBAC
:102A7000060000F12009780701D44FF00108C8458D
:102A800002DDA8EB090000E000208046002706E0F8
:102A900008A85A46C05D0B9990476D1C7F1C57458E
:102AA000F6DB04E030205A460B9990476D1CB8F1D4
:102AB0000001A8F10108F5DC05E016F8010B5A4603
:102AC0000B9990476D1CB9F10001A9F10109F4DCE3
:102AD000641C65E7092801000A68531C0B6010702C
:102AE000704770B50546FDF7CFFC044620F0004066
:102AF000C0F1FF40C00F08D025F00040C0F1FF40FA
:102B0000C00F04BF0120FFF737FF204670BD010250
:102B1000000000000000000001020304060708098D
:102B2000000000000102030402030405060708096F
:102B30000A0B0C0D0E0F101025640000602B00080E
:102B4000000000201800000058290008782B000819
:102B500018000020903300006829000800000000E1
:102B6000000000000024F40001000000010000004B
:082B700010000000000000004D
:04000005080000ED02
:00000001FF
