:020000040800F2
:100000009004002001010008A9120008A1120008B4
:10001000A512000849010008C112000800000000F4
:10002000000000000000000000000000B512000801
:100030004D01000800000000AD120008B9120008D0
:100040001B0100081B0100081B0100081B01000820
:1000500061010008B11200085101000859010008AF
:100060001B0100081B0100081B0100081B01000800
:100070001B0100081B0100081B0100081B010008F0
:100080001B0100081B0100081B0100081B010008E0
:100090001B0100081B0100081B0100081B010008D0
:1000A0001B0100081B0100081B0100081B010008C0
:1000B0001B0100081B0100081B0100081B010008B0
:1000C0001B0100081B0100081B0100081B010008A0
:1000D0001B0100081B0100081B0100081B01000890
:1000E0001B0100081B0100081B010008DFF80CD0F1
:1000F00000F018F800480047E514000890040020BC
:100100000648804706480047FEE7FEE7FEE7FEE7B1
:10011000FEE7FEE7FEE7FEE7FEE7FEE7BD120008AA
:10012000ED000008064C074D06E0E06840F00103D2
:1001300094E8070098471034AC42F6D3FFF7DAFF93
:10014000F016000810170008FEE7000070470000D6
:10015000012000F03BB90000022000F037B9000098
:1001600000F02AB840F26801C2F200010022CA6120
:1001700042F21001C4F202010A6842F002020A606F
:100180004860086840F0400008607047B0B5044619
:1001900000F038FA054640F20400C2F20000007890
:1001A000611C18BF044400BF00F02CFA401BA042A1
:1001B000FAD3B0BD7047000070B542F21004C4F22B
:1001C000020454F8040C40F26805C006C2F20005AF
:1001D0005CBF54F8040C5FEA407029D54FF0FF3142
:1001E000A868A96054F8041CC90601D4002104E0E1
:1001F000E96941F00201E961102154F8042C520729
:1002000005D5EA6941F0040142F00102EA61E268C1
:10021000D20707D0EA6942F00402EA61E26822F0FC
:100220000102E26044F8041C00F07AF80020287013
:1002300054F8040C800663D5202044F8040C287878
:1002400000285DD02878012812D1686801386860DC
:100250006868C8B3A868FFF7ADFFA86800F58060BC
:10026000A860216821F002012160FFF77BFF47E0D1
:100270002878022809D12068002620F00400206098
:100280000020FFF797FF2E703AE068680138686039
:10029000686818B3A8680230A860A868D5E9041295
:1002A000090C41EA0241120CC5E90412216821F04F
:1002B00001012160D5E904120022EA61226842F0BE
:1002C0000102226001801BE04FF0FF30A860002097
:1002D00028704FF0FF30FFF76DFF11E028780328FA
:1002E00001D1A86805E02978A868042914BF063858
:1002F0000238FFF75FFF4FF0FF30A8600020287042
:100300002878002818BF70BD206820F00700206002
:10031000206820F4A05020600020287670BD0000E6
:100320007047000010B5022826D0012818BF10BD64
:1003300040F60004C4F201042046802100F054F984
:1003400040F21000C2F200000168013101606FF359
:100350005E01012904D120464021002200F04CF921
:100360004FF61441CFF6FF71012206206250BDE81E
:10037000104000F099BC00BF40F2100040F60004AD
:10038000C2F200000021C4F20104016020464021B5
:10039000002200F031F920468021002200F02CF9E3
:1003A00000F090FF0020002101F042F802A0BDE81B
:1003B000104001F06BB800BF52455345542E2E2E0D
:1003C0002E2E2E2E2E2E2E2E0000000040F2144136
:1003D000C4F201010A68024214BF08607047FFF7C7
:1003E000A1BF00002DE9F04F82B00E68002E00F092
:1003F000F88040F20C4C40F2004E41F20042C4F250
:10040000010CC4F2010EC4F20102042700240123EE
:100410004FF0000A4FF00009904208BF03270097F1
:1004200041E0012704F00C030F229A402BEA02025C
:1004300007FA03F34FEA9A051A4346F825204E6857
:10044000F203DEF8002054BF22EA080242EA080262
:10045000CEF80020DEF80420B30354BF22EA0802DD
:1004600042EA0802CEF80420F302DEF8082054BF66
:1004700022EA080242EA0802B302CEF80820DCF8B9
:1004800000204FF0010354BF22EA080242EA0802AA
:10049000CCF800200E680AF1010A36FA0AF204F1DB
:1004A000040400F09E8003FA0AFB16EA0B08F1D060
:1004B0004E684FF6FF72C1F21002964210DC122E07
:1004C00050D8DFE806F0330A41454F4F4F4F4F4FAA
:1004D0004F4F4F4F4F4F4F484C00D1F80C9041E0D9
:1004E0004FF6FF72C1F2210296420FDC0022C1F2E8
:1004F000110296421AD00022C1F21202964215D081
:100500000022C1F22102964210D02BE00022C1F25B
:10051000220296420AD00022C1F23102964205D050
:100520000022C1F2320296421CD100BF8A6842B159
:10053000012A14BFC0F814B0C0F810B04FF0080979
:1005400010E04FF004090DE0CA6802F1080909E063
:100550004FF0000906E0CA6802F1040902E0CA6827
:1005600002F10C0922460646B8F5807F24BF203AE6
:10057000043637680F25954027EA050509FA02F287
:100580002A433260CA79D2067FF584AF41F218035C
:10059000C4F202031A68AEF57E7642F001021A60D8
:1005A0001A6802F001020192019A2AF0030256F839
:1005B00002B040F60002C4F2010290420FD040F6B1
:1005C0000042C4F2010290423FF42BAF41F200021C
:1005D000C4F20102009F904208BF022722E70027D1
:1005E00020E702B0BDE8F08FC26802EA0103914340
:1005F00041EA034101617047002A08BF0904016113
:100600007047000040F28800C2F2000000687047A6
:10061000F0B581B0B0B3044690F83D0028B9002091
:1006200084F83C00204600F091FA242084F83D0034
:100630002068016821F001010160016841F4004176
:100640000160016821F40041016000F067FC48F29C
:100650008041C0F21E0140F60012656888424FF0EA
:100660000001C0F23D0248F2A16C4FF0000338BF18
:1006700001219042C0F2010C38BF0123654538BF0B
:100680000B4613B1012001B0F0BD4DF68361C4F2F9
:100690001B31A0FB011221684FEA924E4B684FF4C8
:1006A000967623F03F0343EA92434B6044F6D353DC
:1006B0000F6A0EFB06F6C1F26203A6FB033627F0B3
:1006C0003F03B709654538BF970C7A1C1A430A6285
:1006D000CA6948F2A0674CF6FF73C0F20107BD4239
:1006E00022EA030C0AD801386A00B0FBF2F00130AC
:1006F0006FF31F30042898BF04202BE0A368A0F1FB
:10070000010E9BB119206843BEFBF0F004220130BA
:1007100062F31F30000512D09BB119206843BEFB65
:10072000F0F00422013062F31F3011E005EB4500C8
:10073000BEFBF0F001306FF31F300005ECD101205B
:1007400008E005EB4500BEFBF0F001306FF31F3011
:1007500040F4004040EA0C00C8610868D4E907236F
:1007600020F0C000104318430860886848F2FF3248
:1007700004F10C0790438CCF18431043A66988609E
:10078000C86820F0FF0038433043C860086840F074
:100790000100086000202021206484F83D102063BF
:1007A00084F83E0001B0F0BD2DE9F04782B09A46D2
:1007B000164688460446FFF725FF94F83D10202989
:1007C00021D1DDF8289005462068806910F00207E5
:1007D00013D0FFF717FF401B1A28F5D30020202164
:1007E000206384F83D1084F83E00216C002F41F016
:1007F0002001216484F83C006DD194F83C0001286C
:1008000006D1022600E00226304602B0BDE8F0879D
:100810000121206884F83C100168C90703D10168F0
:1008200041F001010160016821F4006101602121B2
:1008300084F83D10102184F83E1000212164666286
:10084000A4F82AA0618D21850021CFF6FF71E16215
:10085000E16A11F5803F18BF012975D1016841F4A3
:1008600080710160406910F001002ED180F0010616
:1008700009F1010707E000BF2068406910F001009E
:1008800080F0010621D1002FF6D0FFF7BBFEB9F1B1
:10089000000F02D0401B4845EED9002020212063E4
:1008A00084F83D1084F83E00216C41F02001216461
:1008B000F10784F83C0008D0206801260068C005D4
:1008C00044BF4FF4007020649EE72069B0F5804F6C
:1008D00003D1FE2141E0022696E7062000EAD81166
:1008E0002068F03101614169090735D44169490542
:1008F00014D409F1010600BF4EB1FFF783FEB9F130
:10090000000F00F01381401B484500F20F81206862
:100910004169090720D441694905EDD501680126DF
:1009200041F4007101606FF4806141610020202179
:10093000206384F83D1084F83E00216C41F00401EE
:10094000216484F83C005FE708293FF487AF216BFE
:1009500012293FF483AF85E7FF21206801EA0801EF
:100960000161416989072DD44169490514D409F110
:10097000010600BF4EB1FFF745FEB9F1000F00F0D0
:10098000C680401B484500F2C28020684169890743
:1009900018D441694905EDD50168012641F400717B
:1009A00001606FF48061416100202021206384F8A0
:1009B0003D1084F83E00216C41F00401216484F86C
:1009C0003C0021E700260196206841690191806979
:1009D00001900198208D002854D009F1010700BF33
:1009E000206850F8141F09060FD40168490556D431
:1009F000002FF5D0FFF706FEB9F1000F4FF02001F0
:100A000051D0401B4845EBD94DE0D4F824E0226892
:100A1000704610F8013B13616062608D013860859B
:100A2000B4F828C01046ACF10103238550F8141F18
:100A300049070DD519040BD09EF8011011610EF174
:100A400002016162618D01396185ACF1020121858C
:100A5000016802E0206850F8141F49070FD40168AC
:100A6000490538D4002FF5D0FFF7CCFDB9F1000FC0
:100A70004FF0200133D0401B4845EBD92FE0208DAB
:100A80000028ADD12068016841F400710160202088
:100A900084F83D0084F83E6084F83C60B4E66FF46E
:100AA00080610160042100202022206384F83D2021
:100AB00084F83E00226C1143216484F83C00206CD1
:100AC000042806D120680126016841F40071016004
:100AD0009AE6012698E66FF4806101600421002007
:100AE0002022206384F83D2084F83E00226C1143CC
:100AF000216484F83C00206C042806D1206801267B
:100B0000016841F4007101607EE601267CE6002068
:100B10002021206384F83D1084F83E00216C0126DA
:100B200041F02001216484F83C006DE60020202182
:100B3000206384F83D1084F83E00216C012641F0CA
:100B40002001216484F83C005EE6000010B586B008
:100B500045F200410068C4F200010022884204927C
:100B600002D006B010BD00BF41F21804C4F2020466
:100B7000206840F008002060206800F00800019024
:100B80000198C0200290122003900320059001F5E7
:100B9000384002A9FFF726FC606840F4001060604E
:100BA000606800F400100190019806B010BD0000CC
:100BB00040F2040040F28801C2F20000C2F20001DB
:100BC00000780A68104408607047000080B542F25F
:100BD0000000C4F20200016841F01001016003202E
:100BE00000F0AEF8052000F005F800F02BF800202A
:100BF00080BD0000B0B540F20402C2F2000240F233
:100C000000011278C2F200014FF47A730968B3FB55
:100C1000F2F20446B1FBF2F1084600F02BFB0F2C78
:100C20004FF001050CD858B94FF0FF302146002293
:100C3000002500F059F840F20800C2F200000460FC
:100C40002846B0BD80B582B041F21800C4F202005F
:100C50000168002241F001010160016801F0010119
:100C600001910199416841F0805141604068002143
:100C700000F0805000900098042000F035F8042027
:100C800000F022F805200021002200F02DF80520B8
:100C900000F01AF80420C4F201000168022262F395
:100CA0001A61016002B080BD002848BF704700F0A3
:100CB0001F01012202FA01F14EF280224009CEF218
:100CC000000242F820107047002848BF704700F02B
:100CD0001F01012202FA01F14EF200124009CEF288
:100CE000000242F82010704710B54EF60C5CCEF2B0
:100CF000000CDCF80030C3F3022E8EF00704042C45
:100D000028BF0424BEF103034FF0FF3E0EFA04F4A3
:100D100038BF0023A14399400EFA03F39A431143CD
:100D200000F1604200F00F03090102F56442043B48
:100D30006344002848BF03F10C02117010BD00008D
:100D40004EF60C51CEF200010A684FF6FF031A402E
:100D500060F30A2242F0806040F0FD700860704746
:100D60002DE9F04381B0002800F0858042F20008B0
:100D7000C4F202080446D8F800000D4600F007004F
:100D800088420CD2D8F8000020F007002843C8F8A9
:100D90000000D8F8000000F00700A8426BD12068DE
:100DA00041F204098107C4F2020917D5410705D5AC
:100DB000D9F8001041F4E061C9F80010010705D529
:100DC000D9F8001041F46051C9F80010D9F80010AA
:100DD000A26821F0F0011143C9F80010C00741D109
:100DE000D8F8000000F00700A8420CD9D8F800009D
:100DF00020F007002843C8F80000D8F8000000F0F1
:100E00000700A84237D12068410707D5D9F800105C
:100E1000E26821F4E0611143C9F80010000708D529
:100E2000D9F80000216920F4605040EAC100C9F8F7
:100E30000000D9F8002002F00C00082841F2002040
:100E4000C0F27A004ED141F2BA63C2F38341C0F6D8
:100E50000003595CD20339D440F60010C0F23D00C3
:100E600048433FE06068022809D0012829D159F899
:100E7000041C890307D4012001B0BDE8F08359F8B0
:100E8000041C8901F7D5D9F8001021F003010843AB
:100E9000C9F80000FFF7B6FB064641F2883700BFED
:100EA000D9F80000616800F00C00B0EB810F97D01A
:100EB000FFF7A8FB801BB842F2D9032001B0BDE8C0
:100EC000F08359F8041C8907D5D5DCE7D9F8002050
:100ED00041F2A063C2F34042C0F600039A5C48436B
:100EE000B0FBF2F0D9F8001041F2A262C1F3031195
:100EF000C0F60002515C40F2000220FA01F140F21B
:100F00000800C2F200000068C2F200021160FFF7A0
:100F100071FE002001B0BDE8F083000040F2000047
:100F200041F20401C2F20000C4F202010068096843
:100F300041F2B262C1F30221C0F60002515CC84026
:100F4000704700002DE9F04182B0002800F0D78002
:100F50000446007841F20006C007C4F2020644D0FD
:100F6000706800F00C00042817D0706800F00C00C6
:100F7000082802D17068C0030FD465682DB1B5F59B
:100F8000A02F10D0B5F5803F11D0306820F480300C
:100F90003060306820F480200CE03068800324D575
:100FA000606810BBABE0306840F48020306030688F
:100FB00040F480303060FFF725FB002D054611D04E
:100FC0003068800311D4FFF71DFB401B6428F7D95C
:100FD00016E100BFFFF716FB401B64284FF003002B
:100FE00000F28A8030688003F4D42078800718D516
:100FF000706810F00C0F07D0706800F00C00082823
:1010000027D17068C00324D43068800702D52069D6
:10101000012874D13068616920F0F80040EAC1000D
:101020003060207800074FD5A06940B30020C4F29B
:1010300042200121C0F88014FFF7E4FA054600BF02
:10104000706A80072DD4FFF7DDFA401B0228F7D91C
:10105000D6E02069002840F20000C4F2422000F0EF
:10106000A68001210160FFF7CDFA054630688007B0
:10107000D0D4FFF7C7FA401B0228F7D9C0E0002000
:10108000C4F242200021C0F88014FFF7BBFA0546E5
:10109000706A800718D5FFF7B5FA401B0228F7D908
:1010A000AEE040F20000C2F20000006844F6D35106
:1010B000C1F26201A0FB0101480A019000BF019842
:1010C000411E00280191F9D1207840071BD4E56921
:1010D0008DB1706800F00C00082846D1012D0ED0AB
:1010E0007068216A00F480328A4208D1616A00F493
:1010F0007010884203D1002002B0BDE8F0810120C9
:1011000002B0BDE8F081F06910F0805808D1F069B4
:1011100040F08050F061F06900F08050009000983D
:1011200047F20007C4F200073868C0050FD43868DA
:1011300040F480703860FFF765FA05463868C005EE
:1011400005D4FFF75FFA401B6428F7D958E0E5683B
:101150001DB1052D3CD0012D3ED0306A20F001009C
:101160003062306A20F0040039E00027C4F24227E0
:1011700000203866FFF746FA022D05460CD100BF65
:101180003068800154D5FFF73DFA401B02284FF02C
:101190000300F5D9B0E700BF30688001ABD5FFF799
:1011A00031FA401B02284FF00300F5D9A4E70021D3
:1011B0000160FFF727FA0546306880077FF531AFF9
:1011C000FFF720FA401B02284FF00300F4D993E701
:1011D000306A40F004003062306A40F00100306252
:1011E000FFF710FA002D054641F2883714D000BFF2
:1011F000306A800713D4FFF705FA401BB842F7D9CD
:10120000032002B0BDE8F081FFF7FCF9401BB842B3
:101210004FF003003FF670AF306A8007F4D4B8F1A6
:10122000000F7FF454AFF06920F08050F0614EE77A
:10123000206AB0F5803F05D17168A26821F40031C1
:10124000114371607168626A21F47411114308439B
:10125000706001203866FFF7D5F9044630688001D8
:101260003FF549AFFFF7CEF9001B02284FF003000E
:10127000F4D941E7411E0020B0EB116F1CBF0120E3
:1012800070474EF21002CEF2000251604EF623512A
:10129000CEF20001F0230B700721906011607047BF
:1012A000FEE70000FEE70000704700007047000006
:1012B0007047000070470000FFF77ABC70470000DD
:1012C000FEE700002DE9F04184B048F68C0040F2C2
:1012D0001404C0F60C00C2F2000402904FF064083F
:1012E00002AA20464E210423CDF80080FFF75CFAC5
:1012F00042F62D164627C0F60D1603AD20464E21A8
:101300002A4604230396CDF80080FFF74DFA013FEB
:10131000F4D104B0BDE8F08170B582B03220FEF7A0
:1013200035FF40F2140443F63C06C2F20004C0F656
:101330000C06642501AA20464E210423019600953F
:10134000FFF732FA0520FEF721FF01AA20464E21C1
:10135000042301960095FFF727FA0120FEF716FFF8
:1013600001AA20464E21042301960095FFF71CFA9E
:101370000A20FEF70BFF42F62C00C0F60C0001908D
:1013800001AA20464E2104230095FFF70DFA0A20FA
:10139000FEF7FCFE42F62C00C8F68C00019001AA74
:1013A00020464E2104230095FFF7FEF90120FEF7A9
:1013B000EDFE40F60C00C8F68C00019001AA204614
:1013C0004E2104230095FFF7EFF90120FEF7DEFE22
:1013D00040F60C00C1F61C00019001AA20464E21E7
:1013E00004230095FFF7E0F90120FEF7CFFE01206E
:1013F000FEF7CCFE40F60C00C6F66C00019001AA88
:1014000020464E2104230095FFF7CEF90120FEF778
:10141000BDFE40F60C00CCF6CC00019001AA20469F
:101420004E2104230095FFF7BFF902B070BD000004
:10143000012805D0002808BF41F0800102E000BF6C
:1014400041F0C00180B582B021F00F00090100F128
:101450000C0208308DF8050001F10C008DF8060033
:1014600001F108008DF8070040F214008DF8042007
:101470004FF0640CC2F2000001AA4E210423CDF803
:1014800000C0FFF791F902B080BD0000F0B583B055
:10149000017821B340F21404461E6427C2F200040E
:1014A00002AD00BF21F00F00090100F10D0209306B
:1014B0008DF8090001F10D008DF80A0001F1090015
:1014C0008DF808208DF80B0020464E212A46042373
:1014D0000097FFF769F9B17801360029E2D103B02E
:1014E000F0BD000090B040F60008C4F20108FFF71C
:1014F0006DFB00264FF480300224CDE90706CDE9CC
:101500000D404FF4E01001250F9006A8CDE90B66C1
:10151000CDE9096606950A95FFF714FD0F2001A98C
:1015200051C14FF48060CDE9040601A80221FFF704
:1015300017FC41F21800C4F202000168002241F0D9
:10154000200101600168C02701F020010691069981
:10155000016841F004010160016801F00401069195
:101560000699016841F0080101600068C02100F09F
:101570000800069006984046FFF73EF8CDE908645B
:1015800006AC40462146CDE90675FEF72BFF032049
:1015900006900020C1F22100CDE9070508F5806022
:1015A0002146FEF71FFF062004210022FFF79CFBC7
:1015B0000620FFF789FB072003210022FFF794FB99
:1015C0000720FFF781FB40F21005C2F20005A8F5E5
:1015D0003441284640F8041F48F2A061C0F20101DE
:1015E0004FF48042C0E90116C0E90362C0E9056614
:1015F000C0E90766FFF70CF8FFF78EFE41F2EE69CF
:1016000041F2D46641F2CA6741F2E264C0F60009D1
:10161000C0F60006C0F60007C0F6000419E000BFDF
:10162000404640210022FEF7E7FFFFF74BFE002077
:101630000021FFF7FDFE3846FFF728FF01200121BA
:10164000FFF7F6FE2046FFF721FF4FF47A70FEF712
:101650009DFD2878C007E3D1FFF734FE002000216C
:10166000FFF7E6FE4846FFF711FF00200121FFF7D4
:10167000DFFE3046FFF70AFF40464021FEF7B4FF89
:10168000E3E702E008C8121F08C1002AFAD1704738
:101690007047002001E001C1121F002AFBD17047F2
:1016A0000102000000000000000001020304060720
:1016B00008090000000001020304020304050607F4
:1016C00008090A0B0C0D0E0F101050415553452DF3
:1016D0002D2D2D00536F2062756F63206C612031BA
:1016E0003200546F6E672062756F632031320000E4
:1016F00010170008000000201000000082160008EB
:101700002017000810000020800400009216000836
:101710000024F400010000001000000000000000A0
:04000005080000ED02
:00000001FF
